{
  "contractName": "Authentication",
  "abi": [
    {
      "inputs": [
        {
          "internalType": "address",
          "name": "_userManagementAddress",
          "type": "address"
        }
      ],
      "stateMutability": "nonpayable",
      "type": "constructor"
    },
    {
      "anonymous": false,
      "inputs": [
        {
          "indexed": false,
          "internalType": "address",
          "name": "userAddress",
          "type": "address"
        },
        {
          "indexed": false,
          "internalType": "uint256",
          "name": "timestamp",
          "type": "uint256"
        }
      ],
      "name": "LoggedIn",
      "type": "event"
    },
    {
      "inputs": [],
      "name": "login",
      "outputs": [
        {
          "internalType": "bool",
          "name": "",
          "type": "bool"
        }
      ],
      "stateMutability": "nonpayable",
      "type": "function"
    },
    {
      "inputs": [
        {
          "internalType": "address",
          "name": "_address",
          "type": "address"
        }
      ],
      "name": "isDoctor",
      "outputs": [
        {
          "internalType": "bool",
          "name": "",
          "type": "bool"
        }
      ],
      "stateMutability": "view",
      "type": "function",
      "constant": true
    },
    {
      "inputs": [
        {
          "internalType": "address",
          "name": "_address",
          "type": "address"
        }
      ],
      "name": "isPatient",
      "outputs": [
        {
          "internalType": "bool",
          "name": "",
          "type": "bool"
        }
      ],
      "stateMutability": "view",
      "type": "function",
      "constant": true
    }
  ],
  "bytecode": "0x608060405234801561001057600080fd5b506040516103af3803806103af83398101604081905261002f91610054565b600080546001600160a01b0319166001600160a01b0392909216919091179055610084565b60006020828403121561006657600080fd5b81516001600160a01b038116811461007d57600080fd5b9392505050565b61031c806100936000396000f3fe608060405234801561001057600080fd5b50600436106100415760003560e01c80638f9c79ed14610046578063996440c61461006d578063b34e97e814610080575b600080fd5b610059610054366004610294565b610088565b604051901515815260200160405180910390f35b61005961007b366004610294565b6100fe565b610059610131565b60008054604051638f9c79ed60e01b81526001600160a01b03848116600483015290911690638f9c79ed906024015b602060405180830381865afa1580156100d4573d6000803e3d6000fd5b505050506040513d601f19601f820116820180604052508101906100f891906102c4565b92915050565b60008054604051634cb2206360e11b81526001600160a01b0384811660048301529091169063996440c6906024016100b7565b60008054604051638f9c79ed60e01b81523360048201526001600160a01b0390911690638f9c79ed90602401602060405180830381865afa15801561017a573d6000803e3d6000fd5b505050506040513d601f19601f8201168201806040525081019061019e91906102c4565b806102105750600054604051634cb2206360e11b81523360048201526001600160a01b039091169063996440c690602401602060405180830381865afa1580156101ec573d6000803e3d6000fd5b505050506040513d601f19601f8201168201806040525081019061021091906102c4565b6102565760405162461bcd60e51b8152602060048201526013602482015272155cd95c881b9bdd081c9959da5cdd195c9959606a1b604482015260640160405180910390fd5b604080513381524260208201527f6185086b13806a5922b8314f9fff4b38b2fff65384339340a1479f7ed3490aab910160405180910390a150600190565b6000602082840312156102a657600080fd5b81356001600160a01b03811681146102bd57600080fd5b9392505050565b6000602082840312156102d657600080fd5b815180151581146102bd57600080fdfea2646970667358221220614f59f0a38867f5c38e028bb55995328976d4256c5f23b800c62a5ad1f8269864736f6c63430008110033",
  "immutableReferences": {},
  "source": "// SPDX-License-Identifier: MIT\r\npragma solidity ^0.8.0;\r\n\r\nimport \"./UserManagement.sol\";\r\n\r\ncontract Authentication {\r\n    UserManagement private userManagement;\r\n    \r\n    // Events\r\n    event LoggedIn(address userAddress, uint256 timestamp);\r\n    \r\n    // Modifiers\r\n    modifier onlyRegisteredUser() {\r\n        require(\r\n            userManagement.isPatient(msg.sender) || userManagement.isDoctor(msg.sender),\r\n            \"User not registered\"\r\n        );\r\n        _;\r\n    }\r\n    \r\n    constructor(address _userManagementAddress) {\r\n        userManagement = UserManagement(_userManagementAddress);\r\n    }\r\n    \r\n    // Function to authenticate a user\r\n    function login() external onlyRegisteredUser returns (bool) {\r\n        emit LoggedIn(msg.sender, block.timestamp);\r\n        return true;\r\n    }\r\n    \r\n    // Function to check if an address belongs to a doctor\r\n    function isDoctor(address _address) external view returns (bool) {\r\n        return userManagement.isDoctor(_address);\r\n    }\r\n    \r\n    // Function to check if an address belongs to a patient\r\n    function isPatient(address _address) external view returns (bool) {\r\n        return userManagement.isPatient(_address);\r\n    }\r\n}",
  "sourcePath": "C:\\Users\\Chaitanya\\Desktop\\VS_Code\\6th_Sem\\BC\\VS_3\\TeleMedicine-Ethereum\\contracts\\Authentication.sol",
  "compiler": {
    "name": "solc",
    "version": "0.8.17+commit.8df45f5f.Emscripten.clang"
  },
  "schemaVersion": "3.4.16",
  "updatedAt": "2025-04-25T11:34:56.716Z",
  "networkType": "ethereum",
  "devdoc": {
    "kind": "dev",
    "methods": {},
    "version": 1
  },
  "userdoc": {
    "kind": "user",
    "methods": {},
    "version": 1
  }
}