{
  "contractName": "Consultation",
  "abi": [
    {
      "anonymous": false,
      "inputs": [
        {
          "indexed": false,
          "internalType": "uint256",
          "name": "appointmentId",
          "type": "uint256"
        }
      ],
      "name": "AppointmentCancelled",
      "type": "event"
    },
    {
      "anonymous": false,
      "inputs": [
        {
          "indexed": false,
          "internalType": "uint256",
          "name": "appointmentId",
          "type": "uint256"
        }
      ],
      "name": "AppointmentCompleted",
      "type": "event"
    },
    {
      "anonymous": false,
      "inputs": [
        {
          "indexed": false,
          "internalType": "uint256",
          "name": "appointmentId",
          "type": "uint256"
        },
        {
          "indexed": false,
          "internalType": "address",
          "name": "doctor",
          "type": "address"
        },
        {
          "indexed": false,
          "internalType": "address",
          "name": "patient",
          "type": "address"
        },
        {
          "indexed": false,
          "internalType": "uint256",
          "name": "timestamp",
          "type": "uint256"
        },
        {
          "indexed": false,
          "internalType": "uint256",
          "name": "duration",
          "type": "uint256"
        },
        {
          "indexed": false,
          "internalType": "string",
          "name": "symptomDescription",
          "type": "string"
        }
      ],
      "name": "AppointmentScheduled",
      "type": "event"
    },
    {
      "inputs": [],
      "name": "appointmentCounter",
      "outputs": [
        {
          "internalType": "uint256",
          "name": "",
          "type": "uint256"
        }
      ],
      "stateMutability": "view",
      "type": "function",
      "constant": true
    },
    {
      "inputs": [
        {
          "internalType": "uint256",
          "name": "",
          "type": "uint256"
        }
      ],
      "name": "appointments",
      "outputs": [
        {
          "internalType": "uint256",
          "name": "id",
          "type": "uint256"
        },
        {
          "internalType": "address",
          "name": "doctor",
          "type": "address"
        },
        {
          "internalType": "address",
          "name": "patient",
          "type": "address"
        },
        {
          "internalType": "uint256",
          "name": "timestamp",
          "type": "uint256"
        },
        {
          "internalType": "uint256",
          "name": "duration",
          "type": "uint256"
        },
        {
          "internalType": "string",
          "name": "symptomDescription",
          "type": "string"
        },
        {
          "internalType": "enum Consultation.AppointmentStatus",
          "name": "status",
          "type": "uint8"
        }
      ],
      "stateMutability": "view",
      "type": "function",
      "constant": true
    },
    {
      "inputs": [
        {
          "internalType": "address",
          "name": "",
          "type": "address"
        },
        {
          "internalType": "uint256",
          "name": "",
          "type": "uint256"
        }
      ],
      "name": "doctorAppointments",
      "outputs": [
        {
          "internalType": "uint256",
          "name": "",
          "type": "uint256"
        }
      ],
      "stateMutability": "view",
      "type": "function",
      "constant": true
    },
    {
      "inputs": [
        {
          "internalType": "address",
          "name": "",
          "type": "address"
        },
        {
          "internalType": "uint256",
          "name": "",
          "type": "uint256"
        }
      ],
      "name": "patientAppointments",
      "outputs": [
        {
          "internalType": "uint256",
          "name": "",
          "type": "uint256"
        }
      ],
      "stateMutability": "view",
      "type": "function",
      "constant": true
    },
    {
      "inputs": [
        {
          "internalType": "address",
          "name": "doctor",
          "type": "address"
        },
        {
          "internalType": "uint256",
          "name": "timestamp",
          "type": "uint256"
        },
        {
          "internalType": "uint256",
          "name": "duration",
          "type": "uint256"
        },
        {
          "internalType": "string",
          "name": "symptomDescription",
          "type": "string"
        }
      ],
      "name": "scheduleAppointment",
      "outputs": [],
      "stateMutability": "nonpayable",
      "type": "function"
    },
    {
      "inputs": [
        {
          "internalType": "uint256",
          "name": "appointmentId",
          "type": "uint256"
        }
      ],
      "name": "completeAppointment",
      "outputs": [],
      "stateMutability": "nonpayable",
      "type": "function"
    },
    {
      "inputs": [
        {
          "internalType": "uint256",
          "name": "appointmentId",
          "type": "uint256"
        }
      ],
      "name": "cancelAppointment",
      "outputs": [],
      "stateMutability": "nonpayable",
      "type": "function"
    },
    {
      "inputs": [
        {
          "internalType": "uint256",
          "name": "appointmentId",
          "type": "uint256"
        }
      ],
      "name": "getAppointmentDetails",
      "outputs": [
        {
          "internalType": "address",
          "name": "doctor",
          "type": "address"
        },
        {
          "internalType": "address",
          "name": "patient",
          "type": "address"
        },
        {
          "internalType": "uint256",
          "name": "timestamp",
          "type": "uint256"
        },
        {
          "internalType": "uint256",
          "name": "duration",
          "type": "uint256"
        },
        {
          "internalType": "string",
          "name": "symptomDescription",
          "type": "string"
        },
        {
          "internalType": "enum Consultation.AppointmentStatus",
          "name": "status",
          "type": "uint8"
        }
      ],
      "stateMutability": "view",
      "type": "function",
      "constant": true
    },
    {
      "inputs": [],
      "name": "getDoctorAppointments",
      "outputs": [
        {
          "internalType": "uint256[]",
          "name": "",
          "type": "uint256[]"
        }
      ],
      "stateMutability": "view",
      "type": "function",
      "constant": true
    },
    {
      "inputs": [],
      "name": "getPatientAppointments",
      "outputs": [
        {
          "internalType": "uint256[]",
          "name": "",
          "type": "uint256[]"
        }
      ],
      "stateMutability": "view",
      "type": "function",
      "constant": true
    }
  ],
  "bytecode": "0x608060405234801561001057600080fd5b50610cd2806100206000396000f3fe608060405234801561001057600080fd5b506004361061009e5760003560e01c80636a85de14116100665780636a85de14146101405780636b9547d014610153578063a23ba70b14610168578063a7e6440514610170578063b41f6ed61461018357600080fd5b806312dc9013146100a35780632631ee48146100d2578063274894d7146100e75780634095b1171461010c57806357cd46f51461011f575b600080fd5b6100b66100b1366004610831565b61018c565b6040516100c997969594939291906108c8565b60405180910390f35b6100e56100e0366004610955565b610262565b005b6100fa6100f5366004610831565b610409565b6040516100c996959493929190610a2a565b6100e561011a366004610831565b610569565b61013261012d366004610a7e565b61063b565b6040519081526020016100c9565b61013261014e366004610a7e565b61066c565b61015b610688565b6040516100c99190610aa8565b61015b6106e9565b6100e561017e366004610831565b610748565b61013260005481565b60016020819052600091825260409091208054918101546002820154600383015460048401546005850180546001600160a01b03958616969490951694929391926101d690610aec565b80601f016020809104026020016040519081016040528092919081815260200182805461020290610aec565b801561024f5780601f106102245761010080835404028352916020019161024f565b820191906000526020600020905b81548152906001019060200180831161023257829003601f168201915b5050506006909301549192505060ff1687565b60008054908061027183610b26565b91905055506040518060e001604052806000548152602001856001600160a01b03168152602001336001600160a01b03168152602001848152602001838152602001828152602001600060028111156102cc576102cc610890565b905260008054815260016020818152604092839020845181559084015191810180546001600160a01b039384166001600160a01b03199182161790915592840151600282018054919093169316929092179055606082015160038201556080820151600482015560a082015160058201906103479082610b9c565b5060c082015160068201805460ff1916600183600281111561036b5761036b610890565b021790555050506001600160a01b038416600090815260026020908152604080832083548154600181810184559286528486200155338085526003845282852085548154938401825590865293852090910192909255915491517f0c879e36970a5cb8b1cd05ff88b9fb0e3ca5a8daf58c2b36e31753b45d19ce0f926103fb929091889190889088908890610c5c565b60405180910390a150505050565b6000818152600160208181526040808420815160e08101835281548152938101546001600160a01b03908116938501939093526002810154909216908301526003810154606083810191909152600482015460808401526005820180548594859485949385938493929160a084019161048190610aec565b80601f01602080910402602001604051908101604052809291908181526020018280546104ad90610aec565b80156104fa5780601f106104cf576101008083540402835291602001916104fa565b820191906000526020600020905b8154815290600101906020018083116104dd57829003601f168201915b5050509183525050600682015460209091019060ff16600281111561052157610521610890565b600281111561053257610532610890565b905250602081015160408201516060830151608084015160a085015160c090950151939d929c50909a509850919650945092505050565b600081815260016020819052604090912001546001600160a01b031633146105e65760405162461bcd60e51b815260206004820152602560248201527f4f6e6c792074686520646f63746f722063616e206d61726b20617320636f6d706044820152641b195d195960da1b60648201526084015b60405180910390fd5b600081815260016020818152604092839020600601805460ff191690921790915590518281527f96f7f7d72a3fe4b137949271ceab16ab2121be2faeda69bb82794730701668ca91015b60405180910390a150565b6002602052816000526040600020818154811061065757600080fd5b90600052602060002001600091509150505481565b6003602052816000526040600020818154811061065757600080fd5b336000908152600260209081526040918290208054835181840281018401909452808452606093928301828280156106df57602002820191906000526020600020905b8154815260200190600101908083116106cb575b5050505050905090565b336000908152600360209081526040918290208054835181840281018401909452808452606093928301828280156106df57602002820191906000526020600020908154815260200190600101908083116106cb575050505050905090565b6000818152600160205260409020600201546001600160a01b031633148061078a5750600081815260016020819052604090912001546001600160a01b031633145b6107e45760405162461bcd60e51b815260206004820152602560248201527f4f6e6c79207468652070617469656e74206f7220646f63746f722063616e2063604482015264185b98d95b60da1b60648201526084016105dd565b600081815260016020908152604091829020600601805460ff1916600217905590518281527f4b0e2b6047be1a990287b0818b6f06236be270f55a306ec58398d8b9aa7f6e739101610630565b60006020828403121561084357600080fd5b5035919050565b6000815180845260005b8181101561087057602081850181015186830182015201610854565b506000602082860101526020601f19601f83011685010191505092915050565b634e487b7160e01b600052602160045260246000fd5b600381106108c457634e487b7160e01b600052602160045260246000fd5b9052565b8781526001600160a01b03878116602083015286166040820152606081018590526080810184905260e060a082018190526000906109089083018561084a565b905061091760c08301846108a6565b98975050505050505050565b80356001600160a01b038116811461093a57600080fd5b919050565b634e487b7160e01b600052604160045260246000fd5b6000806000806080858703121561096b57600080fd5b61097485610923565b93506020850135925060408501359150606085013567ffffffffffffffff8082111561099f57600080fd5b818701915087601f8301126109b357600080fd5b8135818111156109c5576109c561093f565b604051601f8201601f19908116603f011681019083821181831017156109ed576109ed61093f565b816040528281528a6020848701011115610a0657600080fd5b82602086016020830137600060208483010152809550505050505092959194509250565b6001600160a01b03878116825286166020820152604081018590526060810184905260c060808201819052600090610a649083018561084a565b9050610a7360a08301846108a6565b979650505050505050565b60008060408385031215610a9157600080fd5b610a9a83610923565b946020939093013593505050565b6020808252825182820181905260009190848201906040850190845b81811015610ae057835183529284019291840191600101610ac4565b50909695505050505050565b600181811c90821680610b0057607f821691505b602082108103610b2057634e487b7160e01b600052602260045260246000fd5b50919050565b600060018201610b4657634e487b7160e01b600052601160045260246000fd5b5060010190565b601f821115610b9757600081815260208120601f850160051c81016020861015610b745750805b601f850160051c820191505b81811015610b9357828155600101610b80565b5050505b505050565b815167ffffffffffffffff811115610bb657610bb661093f565b610bca81610bc48454610aec565b84610b4d565b602080601f831160018114610bff5760008415610be75750858301515b600019600386901b1c1916600185901b178555610b93565b600085815260208120601f198616915b82811015610c2e57888601518255948401946001909101908401610c0f565b5085821015610c4c5787850151600019600388901b60f8161c191681555b5050505050600190811b01905550565b8681526001600160a01b03868116602083015285166040820152606081018490526080810183905260c060a082018190526000906109179083018461084a56fea264697066735822122069d33439187a2ae65580ac1354d36142bac4ad0bfa5372a5abdbd59ee228b51464736f6c63430008110033",
  "immutableReferences": {},
  "source": "// SPDX-License-Identifier: MIT\npragma solidity ^0.8.0;\n\ncontract Consultation {\n    uint256 public appointmentCounter;\n\n    enum AppointmentStatus { Scheduled, Completed, Cancelled }\n\n    struct Appointment {\n        uint256 id;\n        address doctor;\n        address patient;\n        uint256 timestamp;\n        uint256 duration;\n        string symptomDescription;\n        AppointmentStatus status;\n    }\n\n    mapping(uint256 => Appointment) public appointments;\n    mapping(address => uint256[]) public doctorAppointments;\n    mapping(address => uint256[]) public patientAppointments;\n\n    event AppointmentScheduled(\n        uint256 appointmentId,\n        address doctor,\n        address patient,\n        uint256 timestamp,\n        uint256 duration,\n        string symptomDescription\n    );\n\n    event AppointmentCompleted(uint256 appointmentId);\n    event AppointmentCancelled(uint256 appointmentId);\n\n    function scheduleAppointment(\n        address doctor,\n        uint256 timestamp,\n        uint256 duration,\n        string memory symptomDescription\n    ) public {\n        appointmentCounter++;\n        appointments[appointmentCounter] = Appointment(\n            appointmentCounter,\n            doctor,\n            msg.sender,\n            timestamp,\n            duration,\n            symptomDescription,\n            AppointmentStatus.Scheduled\n        );\n\n        doctorAppointments[doctor].push(appointmentCounter);\n        patientAppointments[msg.sender].push(appointmentCounter);\n\n        emit AppointmentScheduled(\n            appointmentCounter,\n            doctor,\n            msg.sender,\n            timestamp,\n            duration,\n            symptomDescription\n        );\n    }\n\n    function completeAppointment(uint256 appointmentId) public {\n        require(\n            msg.sender == appointments[appointmentId].doctor,\n            \"Only the doctor can mark as completed\"\n        );\n        appointments[appointmentId].status = AppointmentStatus.Completed;\n        emit AppointmentCompleted(appointmentId);\n    }\n\n    function cancelAppointment(uint256 appointmentId) public {\n        require(\n            msg.sender == appointments[appointmentId].patient || msg.sender == appointments[appointmentId].doctor,\n            \"Only the patient or doctor can cancel\"\n        );\n        appointments[appointmentId].status = AppointmentStatus.Cancelled;\n        emit AppointmentCancelled(appointmentId);\n    }\n\n    function getAppointmentDetails(uint256 appointmentId) public view returns (\n        address doctor,\n        address patient,\n        uint256 timestamp,\n        uint256 duration,\n        string memory symptomDescription,\n        AppointmentStatus status\n    ) {\n        Appointment memory appt = appointments[appointmentId];\n        return (\n            appt.doctor,\n            appt.patient,\n            appt.timestamp,\n            appt.duration,\n            appt.symptomDescription,\n            appt.status\n        );\n    }\n\n    function getDoctorAppointments() public view returns (uint256[] memory) {\n        return doctorAppointments[msg.sender];\n    }\n\n    function getPatientAppointments() public view returns (uint256[] memory) {\n        return patientAppointments[msg.sender];\n    }\n}",
  "sourcePath": "C:\\Users\\Chaitanya\\Desktop\\VS_Code\\6th_Sem\\BC\\VS_3\\TeleMedicine-Ethereum\\contracts\\Consultation.sol",
  "compiler": {
    "name": "solc",
    "version": "0.8.17+commit.8df45f5f.Emscripten.clang"
  },
  "schemaVersion": "3.4.16",
  "updatedAt": "2025-04-25T11:34:56.721Z",
  "networkType": "ethereum",
  "devdoc": {
    "kind": "dev",
    "methods": {},
    "version": 1
  },
  "userdoc": {
    "kind": "user",
    "methods": {},
    "version": 1
  }
}