{
  "contractName": "Prescription",
  "abi": [
    {
      "inputs": [
        {
          "internalType": "address",
          "name": "_userManagementAddress",
          "type": "address"
        },
        {
          "internalType": "address",
          "name": "_consultationAddress",
          "type": "address"
        }
      ],
      "stateMutability": "nonpayable",
      "type": "constructor"
    },
    {
      "anonymous": false,
      "inputs": [
        {
          "indexed": false,
          "internalType": "address",
          "name": "caller",
          "type": "address"
        },
        {
          "indexed": false,
          "internalType": "bool",
          "name": "isVerified",
          "type": "bool"
        }
      ],
      "name": "DebugDoctorCheck",
      "type": "event"
    },
    {
      "anonymous": false,
      "inputs": [
        {
          "indexed": true,
          "internalType": "uint256",
          "name": "prescriptionId",
          "type": "uint256"
        },
        {
          "indexed": true,
          "internalType": "uint256",
          "name": "appointmentId",
          "type": "uint256"
        },
        {
          "indexed": true,
          "internalType": "address",
          "name": "patient",
          "type": "address"
        },
        {
          "indexed": false,
          "internalType": "address",
          "name": "doctor",
          "type": "address"
        }
      ],
      "name": "PrescriptionIssued",
      "type": "event"
    },
    {
      "inputs": [
        {
          "internalType": "address",
          "name": "",
          "type": "address"
        },
        {
          "internalType": "uint256",
          "name": "",
          "type": "uint256"
        }
      ],
      "name": "doctorPrescriptions",
      "outputs": [
        {
          "internalType": "uint256",
          "name": "",
          "type": "uint256"
        }
      ],
      "stateMutability": "view",
      "type": "function",
      "constant": true
    },
    {
      "inputs": [
        {
          "internalType": "address",
          "name": "",
          "type": "address"
        },
        {
          "internalType": "uint256",
          "name": "",
          "type": "uint256"
        }
      ],
      "name": "patientPrescriptions",
      "outputs": [
        {
          "internalType": "uint256",
          "name": "",
          "type": "uint256"
        }
      ],
      "stateMutability": "view",
      "type": "function",
      "constant": true
    },
    {
      "inputs": [
        {
          "internalType": "uint256",
          "name": "",
          "type": "uint256"
        }
      ],
      "name": "prescriptions",
      "outputs": [
        {
          "internalType": "uint256",
          "name": "id",
          "type": "uint256"
        },
        {
          "internalType": "uint256",
          "name": "appointmentId",
          "type": "uint256"
        },
        {
          "internalType": "address",
          "name": "patient",
          "type": "address"
        },
        {
          "internalType": "address",
          "name": "doctor",
          "type": "address"
        },
        {
          "internalType": "string",
          "name": "medicationDetails",
          "type": "string"
        },
        {
          "internalType": "string",
          "name": "dosage",
          "type": "string"
        },
        {
          "internalType": "string",
          "name": "frequency",
          "type": "string"
        },
        {
          "internalType": "string",
          "name": "duration",
          "type": "string"
        },
        {
          "internalType": "string",
          "name": "additionalNotes",
          "type": "string"
        },
        {
          "internalType": "uint256",
          "name": "issueDate",
          "type": "uint256"
        },
        {
          "internalType": "uint256",
          "name": "expiryDate",
          "type": "uint256"
        },
        {
          "internalType": "bytes",
          "name": "signature",
          "type": "bytes"
        },
        {
          "internalType": "bool",
          "name": "exists",
          "type": "bool"
        }
      ],
      "stateMutability": "view",
      "type": "function",
      "constant": true
    },
    {
      "inputs": [
        {
          "internalType": "uint256",
          "name": "_appointmentId",
          "type": "uint256"
        },
        {
          "internalType": "string",
          "name": "_medicationDetails",
          "type": "string"
        },
        {
          "internalType": "string",
          "name": "_dosage",
          "type": "string"
        },
        {
          "internalType": "string",
          "name": "_frequency",
          "type": "string"
        },
        {
          "internalType": "string",
          "name": "_duration",
          "type": "string"
        },
        {
          "internalType": "string",
          "name": "_additionalNotes",
          "type": "string"
        },
        {
          "internalType": "uint256",
          "name": "_expiryDate",
          "type": "uint256"
        },
        {
          "internalType": "bytes",
          "name": "_signature",
          "type": "bytes"
        }
      ],
      "name": "issuePrescription",
      "outputs": [
        {
          "internalType": "uint256",
          "name": "",
          "type": "uint256"
        }
      ],
      "stateMutability": "nonpayable",
      "type": "function"
    },
    {
      "inputs": [
        {
          "internalType": "uint256",
          "name": "_prescriptionId",
          "type": "uint256"
        },
        {
          "internalType": "bytes",
          "name": "_signature",
          "type": "bytes"
        }
      ],
      "name": "verifyPrescription",
      "outputs": [
        {
          "internalType": "bool",
          "name": "",
          "type": "bool"
        }
      ],
      "stateMutability": "view",
      "type": "function",
      "constant": true
    },
    {
      "inputs": [
        {
          "internalType": "uint256",
          "name": "_prescriptionId",
          "type": "uint256"
        }
      ],
      "name": "getPrescriptionDetails",
      "outputs": [
        {
          "internalType": "uint256",
          "name": "appointmentId",
          "type": "uint256"
        },
        {
          "internalType": "address",
          "name": "patient",
          "type": "address"
        },
        {
          "internalType": "address",
          "name": "doctor",
          "type": "address"
        },
        {
          "internalType": "string",
          "name": "medicationDetails",
          "type": "string"
        },
        {
          "internalType": "string",
          "name": "dosage",
          "type": "string"
        },
        {
          "internalType": "string",
          "name": "frequency",
          "type": "string"
        },
        {
          "internalType": "string",
          "name": "duration",
          "type": "string"
        },
        {
          "internalType": "string",
          "name": "additionalNotes",
          "type": "string"
        },
        {
          "internalType": "uint256",
          "name": "issueDate",
          "type": "uint256"
        },
        {
          "internalType": "uint256",
          "name": "expiryDate",
          "type": "uint256"
        },
        {
          "internalType": "bytes",
          "name": "signature",
          "type": "bytes"
        }
      ],
      "stateMutability": "view",
      "type": "function",
      "constant": true
    },
    {
      "inputs": [],
      "name": "getDoctorPrescriptions",
      "outputs": [
        {
          "internalType": "uint256[]",
          "name": "",
          "type": "uint256[]"
        }
      ],
      "stateMutability": "nonpayable",
      "type": "function"
    },
    {
      "inputs": [],
      "name": "getPatientPrescriptions",
      "outputs": [
        {
          "internalType": "uint256[]",
          "name": "",
          "type": "uint256[]"
        }
      ],
      "stateMutability": "view",
      "type": "function",
      "constant": true
    },
    {
      "inputs": [
        {
          "internalType": "uint256",
          "name": "_prescriptionId",
          "type": "uint256"
        }
      ],
      "name": "isPrescriptionValid",
      "outputs": [
        {
          "internalType": "bool",
          "name": "",
          "type": "bool"
        }
      ],
      "stateMutability": "view",
      "type": "function",
      "constant": true
    }
  ],
  "bytecode": "0x60806040523480156200001157600080fd5b5060405162001bb238038062001bb2833981016040819052620000349162000089565b600080546001600160a01b039384166001600160a01b03199182161782556001805493909416921691909117909155600255620000c1565b80516001600160a01b03811681146200008457600080fd5b919050565b600080604083850312156200009d57600080fd5b620000a8836200006c565b9150620000b8602084016200006c565b90509250929050565b611ae180620000d16000396000f3fe608060405234801561001057600080fd5b50600436106100935760003560e01c8063733ba56d11610066578063733ba56d1461012d57806383bd90d414610140578063a5564ec014610153578063adb2722c1461015b578063fb294e0d1461017e57600080fd5b806331dfc91b1461009857806342efd7d0146100cd5780635e189509146100e25780636559dfc71461010c575b600080fd5b6100ab6100a63660046112a5565b610191565b6040516100c49d9c9b9a9998979695949392919061130e565b60405180910390f35b6100d5610534565b6040516100c491906113ea565b6100f56100f03660046112a5565b610666565b6040516100c49b9a9998979695949392919061142e565b61011f61011a3660046114ea565b610b1a565b6040519081526020016100c4565b61011f61013b3660046114ea565b610b4b565b61011f61014e3660046115db565b610b67565b6100d56110d6565b61016e6101693660046112a5565b611206565b60405190151581526020016100c4565b61016e61018c3660046116e5565b611245565b600360208190526000918252604090912080546001820154600283015493830154600484018054939592946001600160a01b039384169493909216926101d69061172c565b80601f01602080910402602001604051908101604052809291908181526020018280546102029061172c565b801561024f5780601f106102245761010080835404028352916020019161024f565b820191906000526020600020905b81548152906001019060200180831161023257829003601f168201915b5050505050908060050180546102649061172c565b80601f01602080910402602001604051908101604052809291908181526020018280546102909061172c565b80156102dd5780601f106102b2576101008083540402835291602001916102dd565b820191906000526020600020905b8154815290600101906020018083116102c057829003601f168201915b5050505050908060060180546102f29061172c565b80601f016020809104026020016040519081016040528092919081815260200182805461031e9061172c565b801561036b5780601f106103405761010080835404028352916020019161036b565b820191906000526020600020905b81548152906001019060200180831161034e57829003601f168201915b5050505050908060070180546103809061172c565b80601f01602080910402602001604051908101604052809291908181526020018280546103ac9061172c565b80156103f95780601f106103ce576101008083540402835291602001916103f9565b820191906000526020600020905b8154815290600101906020018083116103dc57829003601f168201915b50505050509080600801805461040e9061172c565b80601f016020809104026020016040519081016040528092919081815260200182805461043a9061172c565b80156104875780601f1061045c57610100808354040283529160200191610487565b820191906000526020600020905b81548152906001019060200180831161046a57829003601f168201915b50505050509080600901549080600a01549080600b0180546104a89061172c565b80601f01602080910402602001604051908101604052809291908181526020018280546104d49061172c565b80156105215780601f106104f657610100808354040283529160200191610521565b820191906000526020600020905b81548152906001019060200180831161050457829003601f168201915b505050600c909301549192505060ff168d565b60008054604051634cb2206360e11b8152336004820152606092916001600160a01b03169063996440c690602401602060405180830381865afa15801561057f573d6000803e3d6000fd5b505050506040513d601f19601f820116820180604052508101906105a39190611766565b6040805133815282151560208201529192507fc62f12f68702bcbc39e53965f38084b825f54eb1b9587c1e646dd9a99d7f4173910160405180910390a1806106065760405162461bcd60e51b81526004016105fd9061178f565b60405180910390fd5b336000908152600460209081526040918290208054835181840281018401909452808452909183018282801561065b57602002820191906000526020600020905b815481526020019060010190808311610647575b505050505091505090565b6000818152600360205260408120600201548190819060609081908190819081908690819083908c906001600160a01b03163314806106bf5750600081815260036020819052604090912001546001600160a01b031633145b6107225760405162461bcd60e51b815260206004820152602e60248201527f4f6e6c79207061727469636970616e74732063616e206163636573732074686960448201526d3990383932b9b1b934b83a34b7b760911b60648201526084016105fd565b60008d8152600360205260409020600c81015460ff166107545760405162461bcd60e51b81526004016105fd906117db565b80600101548160020160009054906101000a90046001600160a01b03168260030160009054906101000a90046001600160a01b03168360040184600501856006018660070187600801886009015489600a01548a600b018780546107b79061172c565b80601f01602080910402602001604051908101604052809291908181526020018280546107e39061172c565b80156108305780601f1061080557610100808354040283529160200191610830565b820191906000526020600020905b81548152906001019060200180831161081357829003601f168201915b505050505097508680546108439061172c565b80601f016020809104026020016040519081016040528092919081815260200182805461086f9061172c565b80156108bc5780601f10610891576101008083540402835291602001916108bc565b820191906000526020600020905b81548152906001019060200180831161089f57829003601f168201915b505050505096508580546108cf9061172c565b80601f01602080910402602001604051908101604052809291908181526020018280546108fb9061172c565b80156109485780601f1061091d57610100808354040283529160200191610948565b820191906000526020600020905b81548152906001019060200180831161092b57829003601f168201915b5050505050955084805461095b9061172c565b80601f01602080910402602001604051908101604052809291908181526020018280546109879061172c565b80156109d45780601f106109a9576101008083540402835291602001916109d4565b820191906000526020600020905b8154815290600101906020018083116109b757829003601f168201915b505050505094508380546109e79061172c565b80601f0160208091040260200160405190810160405280929190818152602001828054610a139061172c565b8015610a605780601f10610a3557610100808354040283529160200191610a60565b820191906000526020600020905b815481529060010190602001808311610a4357829003601f168201915b50505050509350808054610a739061172c565b80601f0160208091040260200160405190810160405280929190818152602001828054610a9f9061172c565b8015610aec5780601f10610ac157610100808354040283529160200191610aec565b820191906000526020600020905b815481529060010190602001808311610acf57829003601f168201915b505050505090509c509c509c509c509c509c509c509c509c509c509c50505091939597999b90929496989a50565b60046020528160005260406000208181548110610b3657600080fd5b90600052602060002001600091509150505481565b60056020528160005260406000208181548110610b3657600080fd5b60008054604051634cb2206360e11b815233600482015282916001600160a01b03169063996440c690602401602060405180830381865afa158015610bb0573d6000803e3d6000fd5b505050506040513d601f19601f82011682018060405250810190610bd49190611766565b6040805133815282151560208201529192507fc62f12f68702bcbc39e53965f38084b825f54eb1b9587c1e646dd9a99d7f4173910160405180910390a180610c2e5760405162461bcd60e51b81526004016105fd9061178f565b60015460405163274894d760e01b8152600481018c9052600091829182916001600160a01b03169063274894d790602401600060405180830381865afa158015610c7c573d6000803e3d6000fd5b505050506040513d6000823e601f3d908101601f19168201604052610ca49190810190611826565b955050505092509250336001600160a01b0316826001600160a01b031614610d435760405162461bcd60e51b815260206004820152604660248201527f4f6e6c792074686520646f63746f722077686f20636f6e64756374656420746860448201527f65206170706f696e746d656e742063616e20697373756520612070726573637260648201526534b83a34b7b760d11b608482015260a4016105fd565b6001816002811115610d5757610d576118e9565b14610dc25760405162461bcd60e51b815260206004820152603560248201527f4170706f696e746d656e74206d75737420626520636f6d706c6574656420746f6044820152741034b9b9bab2903090383932b9b1b934b83a34b7b760591b60648201526084016105fd565b428711610e1b5760405162461bcd60e51b815260206004820152602160248201527f4578706972792064617465206d75737420626520696e207468652066757475726044820152606560f81b60648201526084016105fd565b6002805460009182610e2c836118ff565b919050559050604051806101a001604052808281526020018f8152602001856001600160a01b03168152602001336001600160a01b031681526020018e81526020018d81526020018c81526020018b81526020018a81526020014281526020018981526020018881526020016001151581525060036000838152602001908152602001600020600082015181600001556020820151816001015560408201518160020160006101000a8154816001600160a01b0302191690836001600160a01b0316021790555060608201518160030160006101000a8154816001600160a01b0302191690836001600160a01b031602179055506080820151816004019081610f359190611975565b5060a08201516005820190610f4a9082611975565b5060c08201516006820190610f5f9082611975565b5060e08201516007820190610f749082611975565b506101008201516008820190610f8a9082611975565b506101208201516009820155610140820151600a820155610160820151600b820190610fb69082611975565b5061018082015181600c0160006101000a81548160ff02191690831515021790555090505060046000336001600160a01b03166001600160a01b0316815260200190815260200160002081908060018154018082558091505060019003906000526020600020016000909190919091505560056000856001600160a01b03166001600160a01b03168152602001908152602001600020819080600181540180825580915050600190039060005260206000200160009091909190915055836001600160a01b03168e827f156b6b9593e7221da507bc6f81946d3243d759fa403610803d87c1f4b9ed7783336040516110bd91906001600160a01b0391909116815260200190565b60405180910390a49d9c50505050505050505050505050565b600054604051638f9c79ed60e01b81523360048201526060916001600160a01b031690638f9c79ed90602401602060405180830381865afa15801561111f573d6000803e3d6000fd5b505050506040513d601f19601f820116820180604052508101906111439190611766565b6111a75760405162461bcd60e51b815260206004820152602f60248201527f4f6e6c7920726567697374657265642070617469656e74732063616e2063616c60448201526e36103a3434b990333ab731ba34b7b760891b60648201526084016105fd565b33600090815260056020908152604091829020805483518184028101840190945280845290918301828280156111fc57602002820191906000526020600020905b8154815260200190600101908083116111e8575b5050505050905090565b6000818152600360205260408120600c81015460ff166112385760405162461bcd60e51b81526004016105fd906117db565b600a015442111592915050565b6000828152600360205260408120600c81015460ff166112775760405162461bcd60e51b81526004016105fd906117db565b600081600b0160405161128a9190611a35565b60405190819003902084516020860120149250505092915050565b6000602082840312156112b757600080fd5b5035919050565b60005b838110156112d95781810151838201526020016112c1565b50506000910152565b600081518084526112fa8160208601602086016112be565b601f01601f19169290920160200192915050565b60006101a08f83528e6020840152611331604084018f6001600160a01b03169052565b6001600160a01b038d1660608401528060808401526113528184018d6112e2565b905082810360a0840152611366818c6112e2565b905082810360c084015261137a818b6112e2565b905082810360e084015261138e818a6112e2565b90508281036101008401526113a381896112e2565b905086610120840152856101408401528281036101608401526113c681866112e2565b9150506113d861018083018415159052565b9e9d5050505050505050505050505050565b6020808252825182820181905260009190848201906040850190845b8181101561142257835183529284019291840191600101611406565b50909695505050505050565b8b81526001600160a01b038b811660208301528a166040820152600061016080606084015261145f8184018c6112e2565b90508281036080840152611473818b6112e2565b905082810360a0840152611487818a6112e2565b905082810360c084015261149b81896112e2565b905082810360e08401526114af81886112e2565b905085610100840152846101208401528281036101408401526113d881856112e2565b6001600160a01b03811681146114e757600080fd5b50565b600080604083850312156114fd57600080fd5b8235611508816114d2565b946020939093013593505050565b634e487b7160e01b600052604160045260246000fd5b604051601f8201601f1916810167ffffffffffffffff8111828210171561155557611555611516565b604052919050565b600067ffffffffffffffff82111561157757611577611516565b50601f01601f191660200190565b600082601f83011261159657600080fd5b81356115a96115a48261155d565b61152c565b8181528460208386010111156115be57600080fd5b816020850160208301376000918101602001919091529392505050565b600080600080600080600080610100898b0312156115f857600080fd5b88359750602089013567ffffffffffffffff8082111561161757600080fd5b6116238c838d01611585565b985060408b013591508082111561163957600080fd5b6116458c838d01611585565b975060608b013591508082111561165b57600080fd5b6116678c838d01611585565b965060808b013591508082111561167d57600080fd5b6116898c838d01611585565b955060a08b013591508082111561169f57600080fd5b6116ab8c838d01611585565b945060c08b0135935060e08b01359150808211156116c857600080fd5b506116d58b828c01611585565b9150509295985092959890939650565b600080604083850312156116f857600080fd5b82359150602083013567ffffffffffffffff81111561171657600080fd5b61172285828601611585565b9150509250929050565b600181811c9082168061174057607f821691505b60208210810361176057634e487b7160e01b600052602260045260246000fd5b50919050565b60006020828403121561177857600080fd5b8151801515811461178857600080fd5b9392505050565b6020808252602c908201527f4f6e6c7920766572696669656420646f63746f72732063616e2063616c6c207460408201526b3434b990333ab731ba34b7b760a11b606082015260800190565b6020808252601b908201527f507265736372697074696f6e20646f6573206e6f742065786973740000000000604082015260600190565b80516003811061182157600080fd5b919050565b60008060008060008060c0878903121561183f57600080fd5b865161184a816114d2565b602088015190965061185b816114d2565b809550506040870151935060608701519250608087015167ffffffffffffffff81111561188757600080fd5b8701601f8101891361189857600080fd5b80516118a66115a48261155d565b8181528a60208385010111156118bb57600080fd5b6118cc8260208301602086016112be565b93506118dd91505060a08801611812565b90509295509295509295565b634e487b7160e01b600052602160045260246000fd5b60006001820161191f57634e487b7160e01b600052601160045260246000fd5b5060010190565b601f82111561197057600081815260208120601f850160051c8101602086101561194d5750805b601f850160051c820191505b8181101561196c57828155600101611959565b5050505b505050565b815167ffffffffffffffff81111561198f5761198f611516565b6119a38161199d845461172c565b84611926565b602080601f8311600181146119d857600084156119c05750858301515b600019600386901b1c1916600185901b17855561196c565b600085815260208120601f198616915b82811015611a07578886015182559484019460019091019084016119e8565b5085821015611a255787850151600019600388901b60f8161c191681555b5050505050600190811b01905550565b6000808354611a438161172c565b60018281168015611a5b5760018114611a7057611a9f565b60ff1984168752821515830287019450611a9f565b8760005260208060002060005b85811015611a965781548a820152908401908201611a7d565b50505082870194505b5092969550505050505056fea2646970667358221220c08e4fb299d50d2a133858b73b50ad458dee138b03692b6799fe26ebf5ca86f864736f6c63430008110033",
  "immutableReferences": {},
  "source": "// SPDX-License-Identifier: MIT\r\npragma solidity ^0.8.0;\r\n\r\nimport \"./UserManagement.sol\";\r\nimport \"./Consultation.sol\";\r\n\r\ncontract Prescription {\r\n    struct PrescriptionData {\r\n        uint256 id;\r\n        uint256 appointmentId;\r\n        address patient;\r\n        address doctor;\r\n        string medicationDetails;\r\n        string dosage;\r\n        string frequency;\r\n        string duration;\r\n        string additionalNotes;\r\n        uint256 issueDate;\r\n        uint256 expiryDate;\r\n        bytes signature;\r\n        bool exists;\r\n    }\r\n\r\n    UserManagement private userManagement;\r\n    Consultation private consultation;\r\n    uint256 private prescriptionCounter;\r\n\r\n    mapping(uint256 => PrescriptionData) public prescriptions;\r\n    mapping(address => uint256[]) public doctorPrescriptions;\r\n    mapping(address => uint256[]) public patientPrescriptions;\r\n\r\n    event PrescriptionIssued(\r\n        uint256 indexed prescriptionId,\r\n        uint256 indexed appointmentId,\r\n        address indexed patient,\r\n        address doctor\r\n    );\r\n\r\n    event DebugDoctorCheck(address caller, bool isVerified);\r\n\r\n    modifier onlyDoctor() {\r\n        bool verified = userManagement.isDoctor(msg.sender);\r\n        emit DebugDoctorCheck(msg.sender, verified);\r\n        require(verified, \"Only verified doctors can call this function\");\r\n        _;\r\n    }\r\n\r\n    modifier onlyParticipant(uint256 _prescriptionId) {\r\n        require(\r\n            prescriptions[_prescriptionId].patient == msg.sender ||\r\n            prescriptions[_prescriptionId].doctor == msg.sender,\r\n            \"Only participants can access this prescription\"\r\n        );\r\n        _;\r\n    }\r\n\r\n    constructor(address _userManagementAddress, address _consultationAddress) {\r\n        userManagement = UserManagement(_userManagementAddress);\r\n        consultation = Consultation(_consultationAddress);\r\n        prescriptionCounter = 0;\r\n    }\r\n\r\n    function issuePrescription(\r\n        uint256 _appointmentId,\r\n        string memory _medicationDetails,\r\n        string memory _dosage,\r\n        string memory _frequency,\r\n        string memory _duration,\r\n        string memory _additionalNotes,\r\n        uint256 _expiryDate,\r\n        bytes memory _signature\r\n    ) external onlyDoctor returns (uint256) {\r\n        (address patient, address doctor, , , , Consultation.AppointmentStatus status) =\r\n            consultation.getAppointmentDetails(_appointmentId);\r\n\r\n        require(doctor == msg.sender, \"Only the doctor who conducted the appointment can issue a prescription\");\r\n        require(status == Consultation.AppointmentStatus.Completed, \"Appointment must be completed to issue a prescription\");\r\n        require(_expiryDate > block.timestamp, \"Expiry date must be in the future\");\r\n\r\n        uint256 prescriptionId = prescriptionCounter++;\r\n\r\n        prescriptions[prescriptionId] = PrescriptionData({\r\n            id: prescriptionId,\r\n            appointmentId: _appointmentId,\r\n            patient: patient,\r\n            doctor: msg.sender,\r\n            medicationDetails: _medicationDetails,\r\n            dosage: _dosage,\r\n            frequency: _frequency,\r\n            duration: _duration,\r\n            additionalNotes: _additionalNotes,\r\n            issueDate: block.timestamp,\r\n            expiryDate: _expiryDate,\r\n            signature: _signature,\r\n            exists: true\r\n        });\r\n\r\n        doctorPrescriptions[msg.sender].push(prescriptionId);\r\n        patientPrescriptions[patient].push(prescriptionId);\r\n\r\n        emit PrescriptionIssued(prescriptionId, _appointmentId, patient, msg.sender);\r\n\r\n        return prescriptionId;\r\n    }\r\n\r\n    function verifyPrescription(uint256 _prescriptionId, bytes memory _signature) external view returns (bool) {\r\n        PrescriptionData storage prescription = prescriptions[_prescriptionId];\r\n        require(prescription.exists, \"Prescription does not exist\");\r\n\r\n        bytes32 signatureHash = keccak256(prescription.signature);\r\n        bytes32 providedSignatureHash = keccak256(_signature);\r\n\r\n        return signatureHash == providedSignatureHash;\r\n    }\r\n\r\n    function getPrescriptionDetails(uint256 _prescriptionId)\r\n        external\r\n        view\r\n        onlyParticipant(_prescriptionId)\r\n        returns (\r\n            uint256 appointmentId,\r\n            address patient,\r\n            address doctor,\r\n            string memory medicationDetails,\r\n            string memory dosage,\r\n            string memory frequency,\r\n            string memory duration,\r\n            string memory additionalNotes,\r\n            uint256 issueDate,\r\n            uint256 expiryDate,\r\n            bytes memory signature\r\n        )\r\n    {\r\n        PrescriptionData storage prescription = prescriptions[_prescriptionId];\r\n        require(prescription.exists, \"Prescription does not exist\");\r\n\r\n        return (\r\n            prescription.appointmentId,\r\n            prescription.patient,\r\n            prescription.doctor,\r\n            prescription.medicationDetails,\r\n            prescription.dosage,\r\n            prescription.frequency,\r\n            prescription.duration,\r\n            prescription.additionalNotes,\r\n            prescription.issueDate,\r\n            prescription.expiryDate,\r\n            prescription.signature\r\n        );\r\n    }\r\n\r\n    function getDoctorPrescriptions() external onlyDoctor returns (uint256[] memory) {\r\n        return doctorPrescriptions[msg.sender];\r\n    }\r\n\r\n    function getPatientPrescriptions() external view returns (uint256[] memory) {\r\n        require(userManagement.isPatient(msg.sender), \"Only registered patients can call this function\");\r\n        return patientPrescriptions[msg.sender];\r\n    }\r\n\r\n    function isPrescriptionValid(uint256 _prescriptionId) external view returns (bool) {\r\n        PrescriptionData storage prescription = prescriptions[_prescriptionId];\r\n        require(prescription.exists, \"Prescription does not exist\");\r\n\r\n        return block.timestamp <= prescription.expiryDate;\r\n    }\r\n}\r\n",
  "sourcePath": "C:\\Users\\Chaitanya\\Desktop\\VS_Code\\6th_Sem\\BC\\VS_3\\TeleMedicine-Ethereum\\contracts\\Prescription.sol",
  "compiler": {
    "name": "solc",
    "version": "0.8.17+commit.8df45f5f.Emscripten.clang"
  },
  "schemaVersion": "3.4.16",
  "updatedAt": "2025-04-25T11:34:56.738Z",
  "networkType": "ethereum",
  "devdoc": {
    "kind": "dev",
    "methods": {},
    "version": 1
  },
  "userdoc": {
    "kind": "user",
    "methods": {},
    "version": 1
  }
}