{
  "contractName": "UserManagement",
  "abi": [
    {
      "inputs": [],
      "stateMutability": "nonpayable",
      "type": "constructor"
    },
    {
      "anonymous": false,
      "inputs": [
        {
          "indexed": true,
          "internalType": "address",
          "name": "doctorAddress",
          "type": "address"
        },
        {
          "indexed": false,
          "internalType": "string",
          "name": "name",
          "type": "string"
        },
        {
          "indexed": false,
          "internalType": "string",
          "name": "specialization",
          "type": "string"
        }
      ],
      "name": "DoctorRegistered",
      "type": "event"
    },
    {
      "anonymous": false,
      "inputs": [
        {
          "indexed": true,
          "internalType": "address",
          "name": "doctorAddress",
          "type": "address"
        }
      ],
      "name": "DoctorVerified",
      "type": "event"
    },
    {
      "anonymous": false,
      "inputs": [
        {
          "indexed": true,
          "internalType": "address",
          "name": "patientAddress",
          "type": "address"
        },
        {
          "indexed": false,
          "internalType": "string",
          "name": "name",
          "type": "string"
        },
        {
          "indexed": false,
          "internalType": "uint256",
          "name": "age",
          "type": "uint256"
        },
        {
          "indexed": false,
          "internalType": "string",
          "name": "medicalHistoryHash",
          "type": "string"
        }
      ],
      "name": "PatientRegistered",
      "type": "event"
    },
    {
      "inputs": [],
      "name": "admin",
      "outputs": [
        {
          "internalType": "address",
          "name": "",
          "type": "address"
        }
      ],
      "stateMutability": "view",
      "type": "function",
      "constant": true
    },
    {
      "inputs": [
        {
          "internalType": "address",
          "name": "",
          "type": "address"
        }
      ],
      "name": "doctors",
      "outputs": [
        {
          "internalType": "string",
          "name": "name",
          "type": "string"
        },
        {
          "internalType": "string",
          "name": "specialization",
          "type": "string"
        },
        {
          "internalType": "string",
          "name": "licenseNumber",
          "type": "string"
        },
        {
          "internalType": "bool",
          "name": "isVerified",
          "type": "bool"
        },
        {
          "internalType": "bool",
          "name": "exists",
          "type": "bool"
        }
      ],
      "stateMutability": "view",
      "type": "function",
      "constant": true
    },
    {
      "inputs": [
        {
          "internalType": "address",
          "name": "",
          "type": "address"
        }
      ],
      "name": "patients",
      "outputs": [
        {
          "internalType": "string",
          "name": "name",
          "type": "string"
        },
        {
          "internalType": "uint256",
          "name": "age",
          "type": "uint256"
        },
        {
          "internalType": "string",
          "name": "medicalHistoryHash",
          "type": "string"
        },
        {
          "internalType": "bool",
          "name": "exists",
          "type": "bool"
        }
      ],
      "stateMutability": "view",
      "type": "function",
      "constant": true
    },
    {
      "inputs": [
        {
          "internalType": "string",
          "name": "_name",
          "type": "string"
        },
        {
          "internalType": "string",
          "name": "_specialization",
          "type": "string"
        },
        {
          "internalType": "string",
          "name": "_licenseNumber",
          "type": "string"
        }
      ],
      "name": "registerDoctor",
      "outputs": [
        {
          "internalType": "bool",
          "name": "",
          "type": "bool"
        }
      ],
      "stateMutability": "nonpayable",
      "type": "function"
    },
    {
      "inputs": [
        {
          "internalType": "address",
          "name": "_doctorAddress",
          "type": "address"
        }
      ],
      "name": "verifyDoctor",
      "outputs": [
        {
          "internalType": "bool",
          "name": "",
          "type": "bool"
        }
      ],
      "stateMutability": "nonpayable",
      "type": "function"
    },
    {
      "inputs": [
        {
          "internalType": "string",
          "name": "_name",
          "type": "string"
        },
        {
          "internalType": "uint256",
          "name": "_age",
          "type": "uint256"
        },
        {
          "internalType": "string",
          "name": "_medicalHistoryHash",
          "type": "string"
        }
      ],
      "name": "registerPatient",
      "outputs": [
        {
          "internalType": "bool",
          "name": "",
          "type": "bool"
        }
      ],
      "stateMutability": "nonpayable",
      "type": "function"
    },
    {
      "inputs": [
        {
          "internalType": "address",
          "name": "_address",
          "type": "address"
        }
      ],
      "name": "isDoctor",
      "outputs": [
        {
          "internalType": "bool",
          "name": "",
          "type": "bool"
        }
      ],
      "stateMutability": "view",
      "type": "function",
      "constant": true
    },
    {
      "inputs": [
        {
          "internalType": "address",
          "name": "_address",
          "type": "address"
        }
      ],
      "name": "isPatient",
      "outputs": [
        {
          "internalType": "bool",
          "name": "",
          "type": "bool"
        }
      ],
      "stateMutability": "view",
      "type": "function",
      "constant": true
    },
    {
      "inputs": [
        {
          "internalType": "address",
          "name": "_doctorAddress",
          "type": "address"
        }
      ],
      "name": "getDoctorDetails",
      "outputs": [
        {
          "internalType": "string",
          "name": "name",
          "type": "string"
        },
        {
          "internalType": "string",
          "name": "specialization",
          "type": "string"
        },
        {
          "internalType": "string",
          "name": "licenseNumber",
          "type": "string"
        },
        {
          "internalType": "bool",
          "name": "isVerified",
          "type": "bool"
        }
      ],
      "stateMutability": "view",
      "type": "function",
      "constant": true
    },
    {
      "inputs": [
        {
          "internalType": "address",
          "name": "_patientAddress",
          "type": "address"
        }
      ],
      "name": "getPatientDetails",
      "outputs": [
        {
          "internalType": "string",
          "name": "name",
          "type": "string"
        },
        {
          "internalType": "uint256",
          "name": "age",
          "type": "uint256"
        },
        {
          "internalType": "string",
          "name": "medicalHistoryHash",
          "type": "string"
        }
      ],
      "stateMutability": "view",
      "type": "function",
      "constant": true
    }
  ],
  "bytecode": "0x608060405234801561001057600080fd5b50600280546001600160a01b031916331790556111b6806100326000396000f3fe608060405234801561001057600080fd5b506004361061009e5760003560e01c8063a9583c2211610066578063a9583c2214610147578063bab90dbd1461016b578063d80cb05c1461018e578063efe2ccc1146101a1578063f851a440146101c357600080fd5b80630869cfbc146100a35780631d14c36e146100cf57806350c7a912146100f25780638f9c79ed14610105578063996440c614610134575b600080fd5b6100b66100b1366004610d12565b6101ee565b6040516100c69493929190610d88565b60405180910390f35b6100e26100dd366004610e6a565b610329565b60405190151581526020016100c6565b6100e2610100366004610ed7565b610452565b6100e2610113366004610d12565b6001600160a01b031660009081526001602052604090206003015460ff1690565b6100e2610142366004610d12565b61058e565b61015a610155366004610d12565b6105df565b6040516100c6959493929190610f48565b61017e610179366004610d12565b6107ab565b6040516100c69493929190610f9b565b6100e261019c366004610d12565b6109e5565b6101b46101af366004610d12565b610b74565b6040516100c693929190610fd4565b6002546101d6906001600160a01b031681565b6040516001600160a01b0390911681526020016100c6565b60016020526000908152604090208054819061020990611009565b80601f016020809104026020016040519081016040528092919081815260200182805461023590611009565b80156102825780601f1061025757610100808354040283529160200191610282565b820191906000526020600020905b81548152906001019060200180831161026557829003601f168201915b50505050509080600101549080600201805461029d90611009565b80601f01602080910402602001604051908101604052809291908181526020018280546102c990611009565b80156103165780601f106102eb57610100808354040283529160200191610316565b820191906000526020600020905b8154815290600101906020018083116102f957829003601f168201915b5050506003909301549192505060ff1684565b3360009081526001602052604081206003015460ff16156103915760405162461bcd60e51b815260206004820152601a60248201527f50617469656e7420616c7265616479207265676973746572656400000000000060448201526064015b60405180910390fd5b604080516080810182528581526020808201869052818301859052600160608301819052336000908152915291909120815181906103cf9082611092565b5060208201516001820155604082015160028201906103ee9082611092565b50606091909101516003909101805460ff191691151591909117905560405133907f3b1fc31c6c58b3eb9a4dca3db2b0227286b37baa786c288fd06e2fa395e681c89061044090879087908790610fd4565b60405180910390a25060019392505050565b33600090815260208190526040812060030154610100900460ff16156104ba5760405162461bcd60e51b815260206004820152601960248201527f446f63746f7220616c72656164792072656769737465726564000000000000006044820152606401610388565b6040805160a0810182528581526020808201869052818301859052600060608301819052600160808401523381529081905291909120815181906104fe9082611092565b50602082015160018201906105139082611092565b50604082015160028201906105289082611092565b5060608201516003909101805460809093015115156101000261ff00199215159290921661ffff199093169290921717905560405133907fbc3a5b2aeb1bc52e3d56d3fd3423dd66cea5ecff8ae1f3bd0d75a0e608da7b85906104409087908790611152565b6001600160a01b038116600090815260208190526040812060030154610100900460ff1680156105d957506001600160a01b03821660009081526020819052604090206003015460ff165b92915050565b6000602081905290815260409020805481906105fa90611009565b80601f016020809104026020016040519081016040528092919081815260200182805461062690611009565b80156106735780601f1061064857610100808354040283529160200191610673565b820191906000526020600020905b81548152906001019060200180831161065657829003601f168201915b50505050509080600101805461068890611009565b80601f01602080910402602001604051908101604052809291908181526020018280546106b490611009565b80156107015780601f106106d657610100808354040283529160200191610701565b820191906000526020600020905b8154815290600101906020018083116106e457829003601f168201915b50505050509080600201805461071690611009565b80601f016020809104026020016040519081016040528092919081815260200182805461074290611009565b801561078f5780601f106107645761010080835404028352916020019161078f565b820191906000526020600020905b81548152906001019060200180831161077257829003601f168201915b5050506003909301549192505060ff8082169161010090041685565b6001600160a01b0381166000908152602081905260408120600381015460609283928392610100900460ff1661081b5760405162461bcd60e51b8152602060048201526015602482015274111bd8dd1bdc88191bd95cc81b9bdd08195e1a5cdd605a1b6044820152606401610388565b6003810154815482916001830191600284019160ff1690849061083d90611009565b80601f016020809104026020016040519081016040528092919081815260200182805461086990611009565b80156108b65780601f1061088b576101008083540402835291602001916108b6565b820191906000526020600020905b81548152906001019060200180831161089957829003601f168201915b505050505093508280546108c990611009565b80601f01602080910402602001604051908101604052809291908181526020018280546108f590611009565b80156109425780601f1061091757610100808354040283529160200191610942565b820191906000526020600020905b81548152906001019060200180831161092557829003601f168201915b5050505050925081805461095590611009565b80601f016020809104026020016040519081016040528092919081815260200182805461098190611009565b80156109ce5780601f106109a3576101008083540402835291602001916109ce565b820191906000526020600020905b8154815290600101906020018083116109b157829003601f168201915b505050505091509450945094509450509193509193565b6002546000906001600160a01b03163314610a4c5760405162461bcd60e51b815260206004820152602160248201527f4f6e6c792061646d696e2063616e2063616c6c20746869732066756e6374696f6044820152603760f91b6064820152608401610388565b6001600160a01b038216600090815260208190526040902060030154610100900460ff16610ab45760405162461bcd60e51b8152602060048201526015602482015274111bd8dd1bdc88191bd95cc81b9bdd08195e1a5cdd605a1b6044820152606401610388565b6001600160a01b03821660009081526020819052604090206003015460ff1615610b205760405162461bcd60e51b815260206004820152601760248201527f446f63746f7220616c72656164792076657269666965640000000000000000006044820152606401610388565b6001600160a01b038216600081815260208190526040808220600301805460ff19166001179055517fb0859f2cf042b300c8948cdd785ec6a23a3742bc5446c19f4b270b67fac2c9679190a2506001919050565b6001600160a01b0381166000908152600160205260408120600381015460609291839160ff16610bdf5760405162461bcd60e51b815260206004820152601660248201527514185d1a595b9d08191bd95cc81b9bdd08195e1a5cdd60521b6044820152606401610388565b80600001816001015482600201828054610bf890611009565b80601f0160208091040260200160405190810160405280929190818152602001828054610c2490611009565b8015610c715780601f10610c4657610100808354040283529160200191610c71565b820191906000526020600020905b815481529060010190602001808311610c5457829003601f168201915b50505050509250808054610c8490611009565b80601f0160208091040260200160405190810160405280929190818152602001828054610cb090611009565b8015610cfd5780601f10610cd257610100808354040283529160200191610cfd565b820191906000526020600020905b815481529060010190602001808311610ce057829003601f168201915b50505050509050935093509350509193909250565b600060208284031215610d2457600080fd5b81356001600160a01b0381168114610d3b57600080fd5b9392505050565b6000815180845260005b81811015610d6857602081850181015186830182015201610d4c565b506000602082860101526020601f19601f83011685010191505092915050565b608081526000610d9b6080830187610d42565b8560208401528281036040840152610db38186610d42565b915050821515606083015295945050505050565b634e487b7160e01b600052604160045260246000fd5b600082601f830112610dee57600080fd5b813567ffffffffffffffff80821115610e0957610e09610dc7565b604051601f8301601f19908116603f01168101908282118183101715610e3157610e31610dc7565b81604052838152866020858801011115610e4a57600080fd5b836020870160208301376000602085830101528094505050505092915050565b600080600060608486031215610e7f57600080fd5b833567ffffffffffffffff80821115610e9757600080fd5b610ea387838801610ddd565b9450602086013593506040860135915080821115610ec057600080fd5b50610ecd86828701610ddd565b9150509250925092565b600080600060608486031215610eec57600080fd5b833567ffffffffffffffff80821115610f0457600080fd5b610f1087838801610ddd565b94506020860135915080821115610f2657600080fd5b610f3287838801610ddd565b93506040860135915080821115610ec057600080fd5b60a081526000610f5b60a0830188610d42565b8281036020840152610f6d8188610d42565b90508281036040840152610f818187610d42565b941515606084015250509015156080909101529392505050565b608081526000610fae6080830187610d42565b8281036020840152610fc08187610d42565b90508281036040840152610db38186610d42565b606081526000610fe76060830186610d42565b8460208401528281036040840152610fff8185610d42565b9695505050505050565b600181811c9082168061101d57607f821691505b60208210810361103d57634e487b7160e01b600052602260045260246000fd5b50919050565b601f82111561108d57600081815260208120601f850160051c8101602086101561106a5750805b601f850160051c820191505b8181101561108957828155600101611076565b5050505b505050565b815167ffffffffffffffff8111156110ac576110ac610dc7565b6110c0816110ba8454611009565b84611043565b602080601f8311600181146110f557600084156110dd5750858301515b600019600386901b1c1916600185901b178555611089565b600085815260208120601f198616915b8281101561112457888601518255948401946001909101908401611105565b50858210156111425787850151600019600388901b60f8161c191681555b5050505050600190811b01905550565b6040815260006111656040830185610d42565b82810360208401526111778185610d42565b9594505050505056fea26469706673582212208dfbf887efe1efe3e324d5cd923bd6aed64c389f6f4dcc4808da2d8f110e394164736f6c63430008110033",
  "immutableReferences": {},
  "source": "// SPDX-License-Identifier: MIT\r\npragma solidity ^0.8.0;\r\n\r\ncontract UserManagement {\r\n    // Structs\r\n    struct Doctor {\r\n        string name;\r\n        string specialization;\r\n        string licenseNumber;\r\n        bool isVerified;\r\n        bool exists;\r\n    }\r\n    \r\n    struct Patient {\r\n        string name;\r\n        uint256 age;\r\n        string medicalHistoryHash; // IPFS hash of patient's medical history\r\n        bool exists;\r\n    }\r\n    \r\n    // Mappings\r\n    mapping(address => Doctor) public doctors;\r\n    mapping(address => Patient) public patients;\r\n    \r\n    // Admin address that can verify doctors\r\n    address public admin;\r\n    \r\n    // Events\r\n    event DoctorRegistered(address indexed doctorAddress, string name, string specialization);\r\n    event DoctorVerified(address indexed doctorAddress);\r\n    event PatientRegistered(address indexed patientAddress, string name, uint age, string medicalHistoryHash);\r\n\r\n    \r\n    // Modifiers\r\n    modifier onlyAdmin() {\r\n        require(msg.sender == admin, \"Only admin can call this function\");\r\n        _;\r\n    }\r\n    \r\n    constructor() {\r\n        admin = msg.sender;\r\n    }\r\n    \r\n    // Register a new doctor\r\n    function registerDoctor(\r\n        string memory _name,\r\n        string memory _specialization,\r\n        string memory _licenseNumber\r\n    ) external returns (bool) {\r\n        require(!doctors[msg.sender].exists, \"Doctor already registered\");\r\n        \r\n        doctors[msg.sender] = Doctor({\r\n            name: _name,\r\n            specialization: _specialization,\r\n            licenseNumber: _licenseNumber,\r\n            isVerified: false,\r\n            exists: true\r\n        });\r\n        \r\n        emit DoctorRegistered(msg.sender, _name, _specialization);\r\n        return true;\r\n    }\r\n    \r\n    // Verify a doctor (only admin)\r\n    function verifyDoctor(address _doctorAddress) external onlyAdmin returns (bool) {\r\n        require(doctors[_doctorAddress].exists, \"Doctor does not exist\");\r\n        require(!doctors[_doctorAddress].isVerified, \"Doctor already verified\");\r\n        \r\n        doctors[_doctorAddress].isVerified = true;\r\n        \r\n        emit DoctorVerified(_doctorAddress);\r\n\r\n        return true;\r\n    }\r\n    \r\n    // Register a new patient\r\n    function registerPatient(\r\n    string memory _name,\r\n    uint256 _age,\r\n    string memory _medicalHistoryHash\r\n) external returns (bool) {\r\n    require(!patients[msg.sender].exists, \"Patient already registered\");\r\n\r\n    patients[msg.sender] = Patient({\r\n        name: _name,\r\n        age: _age,\r\n        medicalHistoryHash: _medicalHistoryHash,\r\n        exists: true\r\n    });\r\n\r\n    emit PatientRegistered(msg.sender, _name, _age, _medicalHistoryHash);\r\n\r\n    return true;\r\n}\r\n    \r\n    // Check if an address belongs to a verified doctor\r\n    function isDoctor(address _address) external view returns (bool) {\r\n        return doctors[_address].exists && doctors[_address].isVerified;\r\n    }\r\n    \r\n    // Check if an address belongs to a registered patient\r\n    function isPatient(address _address) external view returns (bool) {\r\n        return patients[_address].exists;\r\n    }\r\n    \r\n    // Get doctor details\r\n    function getDoctorDetails(address _doctorAddress) \r\n        external \r\n        view \r\n        returns (\r\n            string memory name,\r\n            string memory specialization,\r\n            string memory licenseNumber,\r\n            bool isVerified\r\n        ) \r\n    {\r\n        Doctor storage doctor = doctors[_doctorAddress];\r\n        require(doctor.exists, \"Doctor does not exist\");\r\n        \r\n        return (\r\n            doctor.name,\r\n            doctor.specialization,\r\n            doctor.licenseNumber,\r\n            doctor.isVerified\r\n        );\r\n    }\r\n    \r\n    // Get patient details\r\n    function getPatientDetails(address _patientAddress) \r\n        external \r\n        view \r\n        returns (\r\n            string memory name,\r\n            uint256 age,\r\n            string memory medicalHistoryHash\r\n        ) \r\n    {\r\n        Patient storage patient = patients[_patientAddress];\r\n        require(patient.exists, \"Patient does not exist\");\r\n        \r\n        return (\r\n            patient.name,\r\n            patient.age,\r\n            patient.medicalHistoryHash\r\n        );\r\n    }\r\n    \r\n}",
  "sourcePath": "C:\\Users\\Chaitanya\\Desktop\\VS_Code\\6th_Sem\\BC\\VS_3\\TeleMedicine-Ethereum\\contracts\\UserManagement.sol",
  "compiler": {
    "name": "solc",
    "version": "0.8.17+commit.8df45f5f.Emscripten.clang"
  },
  "schemaVersion": "3.4.16",
  "updatedAt": "2025-04-25T11:34:56.710Z",
  "networkType": "ethereum",
  "devdoc": {
    "kind": "dev",
    "methods": {},
    "version": 1
  },
  "userdoc": {
    "kind": "user",
    "methods": {},
    "version": 1
  }
}