{
  "contractName": "PrescriptionSystem",
  "abi": [
    {
      "anonymous": false,
      "inputs": [
        {
          "indexed": true,
          "internalType": "uint256",
          "name": "prescriptionId",
          "type": "uint256"
        },
        {
          "indexed": true,
          "internalType": "address",
          "name": "pharmacistId",
          "type": "address"
        }
      ],
      "name": "PrescriptionFilled",
      "type": "event"
    },
    {
      "anonymous": false,
      "inputs": [
        {
          "indexed": true,
          "internalType": "uint256",
          "name": "prescriptionId",
          "type": "uint256"
        },
        {
          "indexed": true,
          "internalType": "address",
          "name": "doctorId",
          "type": "address"
        },
        {
          "indexed": true,
          "internalType": "address",
          "name": "patientId",
          "type": "address"
        }
      ],
      "name": "PrescriptionIssued",
      "type": "event"
    },
    {
      "anonymous": false,
      "inputs": [
        {
          "indexed": true,
          "internalType": "uint256",
          "name": "prescriptionId",
          "type": "uint256"
        },
        {
          "indexed": true,
          "internalType": "address",
          "name": "doctorId",
          "type": "address"
        }
      ],
      "name": "PrescriptionRevoked",
      "type": "event"
    },
    {
      "anonymous": false,
      "inputs": [
        {
          "indexed": true,
          "internalType": "address",
          "name": "userAddress",
          "type": "address"
        },
        {
          "indexed": false,
          "internalType": "string",
          "name": "name",
          "type": "string"
        },
        {
          "indexed": false,
          "internalType": "enum PrescriptionSystem.Role",
          "name": "role",
          "type": "uint8"
        }
      ],
      "name": "UserRegistered",
      "type": "event"
    },
    {
      "inputs": [
        {
          "internalType": "address",
          "name": "",
          "type": "address"
        },
        {
          "internalType": "uint256",
          "name": "",
          "type": "uint256"
        }
      ],
      "name": "doctorPrescriptions",
      "outputs": [
        {
          "internalType": "uint256",
          "name": "",
          "type": "uint256"
        }
      ],
      "stateMutability": "view",
      "type": "function",
      "constant": true
    },
    {
      "inputs": [
        {
          "internalType": "address",
          "name": "",
          "type": "address"
        },
        {
          "internalType": "uint256",
          "name": "",
          "type": "uint256"
        }
      ],
      "name": "patientPrescriptions",
      "outputs": [
        {
          "internalType": "uint256",
          "name": "",
          "type": "uint256"
        }
      ],
      "stateMutability": "view",
      "type": "function",
      "constant": true
    },
    {
      "inputs": [],
      "name": "prescriptionCount",
      "outputs": [
        {
          "internalType": "uint256",
          "name": "",
          "type": "uint256"
        }
      ],
      "stateMutability": "view",
      "type": "function",
      "constant": true
    },
    {
      "inputs": [
        {
          "internalType": "uint256",
          "name": "",
          "type": "uint256"
        }
      ],
      "name": "prescriptions",
      "outputs": [
        {
          "internalType": "uint256",
          "name": "id",
          "type": "uint256"
        },
        {
          "internalType": "address",
          "name": "patientId",
          "type": "address"
        },
        {
          "internalType": "address",
          "name": "doctorId",
          "type": "address"
        },
        {
          "internalType": "string",
          "name": "medication",
          "type": "string"
        },
        {
          "internalType": "string",
          "name": "dosage",
          "type": "string"
        },
        {
          "internalType": "uint256",
          "name": "quantity",
          "type": "uint256"
        },
        {
          "internalType": "uint256",
          "name": "refills",
          "type": "uint256"
        },
        {
          "internalType": "uint256",
          "name": "issueDate",
          "type": "uint256"
        },
        {
          "internalType": "uint256",
          "name": "expiryDate",
          "type": "uint256"
        },
        {
          "internalType": "enum PrescriptionSystem.Status",
          "name": "status",
          "type": "uint8"
        },
        {
          "internalType": "address",
          "name": "filledBy",
          "type": "address"
        },
        {
          "internalType": "uint256",
          "name": "filledDate",
          "type": "uint256"
        }
      ],
      "stateMutability": "view",
      "type": "function",
      "constant": true
    },
    {
      "inputs": [
        {
          "internalType": "address",
          "name": "",
          "type": "address"
        }
      ],
      "name": "users",
      "outputs": [
        {
          "internalType": "string",
          "name": "name",
          "type": "string"
        },
        {
          "internalType": "enum PrescriptionSystem.Role",
          "name": "role",
          "type": "uint8"
        },
        {
          "internalType": "bool",
          "name": "isRegistered",
          "type": "bool"
        }
      ],
      "stateMutability": "view",
      "type": "function",
      "constant": true
    },
    {
      "inputs": [
        {
          "internalType": "string",
          "name": "_name",
          "type": "string"
        },
        {
          "internalType": "uint8",
          "name": "_role",
          "type": "uint8"
        }
      ],
      "name": "registerUser",
      "outputs": [],
      "stateMutability": "nonpayable",
      "type": "function"
    },
    {
      "inputs": [
        {
          "internalType": "address",
          "name": "_patientId",
          "type": "address"
        },
        {
          "internalType": "string",
          "name": "_medication",
          "type": "string"
        },
        {
          "internalType": "string",
          "name": "_dosage",
          "type": "string"
        },
        {
          "internalType": "uint256",
          "name": "_quantity",
          "type": "uint256"
        },
        {
          "internalType": "uint256",
          "name": "_refills",
          "type": "uint256"
        },
        {
          "internalType": "uint256",
          "name": "_expiryDays",
          "type": "uint256"
        }
      ],
      "name": "issuePrescription",
      "outputs": [
        {
          "internalType": "uint256",
          "name": "",
          "type": "uint256"
        }
      ],
      "stateMutability": "nonpayable",
      "type": "function"
    },
    {
      "inputs": [
        {
          "internalType": "uint256",
          "name": "_prescriptionId",
          "type": "uint256"
        }
      ],
      "name": "fillPrescription",
      "outputs": [],
      "stateMutability": "nonpayable",
      "type": "function"
    },
    {
      "inputs": [
        {
          "internalType": "uint256",
          "name": "_prescriptionId",
          "type": "uint256"
        }
      ],
      "name": "revokePrescription",
      "outputs": [],
      "stateMutability": "nonpayable",
      "type": "function"
    },
    {
      "inputs": [
        {
          "internalType": "uint256",
          "name": "_prescriptionId",
          "type": "uint256"
        }
      ],
      "name": "getPrescription",
      "outputs": [
        {
          "internalType": "uint256",
          "name": "id",
          "type": "uint256"
        },
        {
          "internalType": "address",
          "name": "patientId",
          "type": "address"
        },
        {
          "internalType": "address",
          "name": "doctorId",
          "type": "address"
        },
        {
          "internalType": "string",
          "name": "medication",
          "type": "string"
        },
        {
          "internalType": "string",
          "name": "dosage",
          "type": "string"
        },
        {
          "internalType": "uint256",
          "name": "quantity",
          "type": "uint256"
        },
        {
          "internalType": "uint256",
          "name": "refills",
          "type": "uint256"
        },
        {
          "internalType": "uint256",
          "name": "issueDate",
          "type": "uint256"
        },
        {
          "internalType": "uint256",
          "name": "expiryDate",
          "type": "uint256"
        },
        {
          "internalType": "enum PrescriptionSystem.Status",
          "name": "status",
          "type": "uint8"
        }
      ],
      "stateMutability": "view",
      "type": "function",
      "constant": true
    },
    {
      "inputs": [],
      "name": "getPatientPrescriptions",
      "outputs": [
        {
          "internalType": "uint256[]",
          "name": "",
          "type": "uint256[]"
        }
      ],
      "stateMutability": "view",
      "type": "function",
      "constant": true
    },
    {
      "inputs": [],
      "name": "getDoctorPrescriptions",
      "outputs": [
        {
          "internalType": "uint256[]",
          "name": "",
          "type": "uint256[]"
        }
      ],
      "stateMutability": "view",
      "type": "function",
      "constant": true
    },
    {
      "inputs": [
        {
          "internalType": "address",
          "name": "_userAddress",
          "type": "address"
        }
      ],
      "name": "getUserRole",
      "outputs": [
        {
          "internalType": "enum PrescriptionSystem.Role",
          "name": "",
          "type": "uint8"
        }
      ],
      "stateMutability": "view",
      "type": "function",
      "constant": true
    }
  ],
  "bytecode": "0x6080604052600060045534801561001557600080fd5b50612adb806100256000396000f3fe608060405234801561001057600080fd5b50600436106100cf5760003560e01c8063733ba56d1161008c578063af10b90611610066578063af10b90614610262578063b11db9e414610292578063b6558498146102ae578063ef43b4ec146102cc576100cf565b8063733ba56d146101e2578063a5564ec014610212578063a87430ba14610230576100cf565b806327820851146100d457806331dfc91b14610104578063338e12eb1461013f57806342efd7d01461015b5780636559dfc7146101795780636f16af10146101a9575b600080fd5b6100ee60048036038101906100e99190611998565b6102e8565b6040516100fb9190611a3c565b60405180910390f35b61011e60048036038101906101199190611a8d565b610340565b6040516101369c9b9a99989796959493929190611bb0565b60405180910390f35b61015960048036038101906101549190611de6565b61051d565b005b610163610757565b6040516101709190611f00565b60405180910390f35b610193600480360381019061018e9190611f22565b61092f565b6040516101a09190611f62565b60405180910390f35b6101c360048036038101906101be9190611a8d565b610960565b6040516101d99a99989796959493929190611f7d565b60405180910390f35b6101fc60048036038101906101f79190611f22565b610b83565b6040516102099190611f62565b60405180910390f35b61021a610bb4565b6040516102279190611f00565b60405180910390f35b61024a60048036038101906102459190611998565b610cd7565b60405161025993929190612042565b60405180910390f35b61027c60048036038101906102779190612080565b610da3565b6040516102899190611f62565b60405180910390f35b6102ac60048036038101906102a79190611a8d565b611342565b005b6102b66116b6565b6040516102c39190611f62565b60405180910390f35b6102e660048036038101906102e19190611a8d565b6116bc565b005b60008060008373ffffffffffffffffffffffffffffffffffffffff1673ffffffffffffffffffffffffffffffffffffffff16815260200190815260200160002060010160009054906101000a900460ff169050919050565b60016020528060005260406000206000915090508060000154908060010160009054906101000a900473ffffffffffffffffffffffffffffffffffffffff16908060020160009054906101000a900473ffffffffffffffffffffffffffffffffffffffff16908060030180546103b590612174565b80601f01602080910402602001604051908101604052809291908181526020018280546103e190612174565b801561042e5780601f106104035761010080835404028352916020019161042e565b820191906000526020600020905b81548152906001019060200180831161041157829003601f168201915b50505050509080600401805461044390612174565b80601f016020809104026020016040519081016040528092919081815260200182805461046f90612174565b80156104bc5780601f10610491576101008083540402835291602001916104bc565b820191906000526020600020905b81548152906001019060200180831161049f57829003601f168201915b5050505050908060050154908060060154908060070154908060080154908060090160009054906101000a900460ff16908060090160019054906101000a900473ffffffffffffffffffffffffffffffffffffffff169080600a015490508c565b6000803373ffffffffffffffffffffffffffffffffffffffff1673ffffffffffffffffffffffffffffffffffffffff16815260200190815260200160002060010160019054906101000a900460ff16156105ac576040517f08c379a00000000000000000000000000000000000000000000000000000000081526004016105a3906121f1565b60405180910390fd5b60008160ff161180156105c3575060038160ff1611155b610602576040517f08c379a00000000000000000000000000000000000000000000000000000000081526004016105f99061225d565b60405180910390fd5b60405180606001604052808381526020018260ff166003811115610629576106286119c5565b5b600381111561063b5761063a6119c5565b5b8152602001600115158152506000803373ffffffffffffffffffffffffffffffffffffffff1673ffffffffffffffffffffffffffffffffffffffff168152602001908152602001600020600082015181600001908161069a9190612429565b5060208201518160010160006101000a81548160ff021916908360038111156106c6576106c56119c5565b5b021790555060408201518160010160016101000a81548160ff0219169083151502179055509050503373ffffffffffffffffffffffffffffffffffffffff167fc2e5d5da58bd71d1a2d14cdef02a4256d971b728088f8190d067ccfbae3bd73e838360ff16600381111561073d5761073c6119c5565b5b60405161074b9291906124fb565b60405180910390a25050565b60606000803373ffffffffffffffffffffffffffffffffffffffff1673ffffffffffffffffffffffffffffffffffffffff16815260200190815260200160002060010160019054906101000a900460ff166107e7576040517f08c379a00000000000000000000000000000000000000000000000000000000081526004016107de90612577565b60405180910390fd5b600160038111156107fb576107fa6119c5565b5b6000803373ffffffffffffffffffffffffffffffffffffffff1673ffffffffffffffffffffffffffffffffffffffff16815260200190815260200160002060010160009054906101000a900460ff16600381111561085c5761085b6119c5565b5b1461089c576040517f08c379a000000000000000000000000000000000000000000000000000000000815260040161089390612609565b60405180910390fd5b600360003373ffffffffffffffffffffffffffffffffffffffff1673ffffffffffffffffffffffffffffffffffffffff16815260200190815260200160002080548060200260200160405190810160405280929190818152602001828054801561092557602002820191906000526020600020905b815481526020019060010190808311610911575b5050505050905090565b6003602052816000526040600020818154811061094b57600080fd5b90600052602060002001600091509150505481565b6000806000606080600080600080600080600160008d815260200190815260200160002090508b8160000154146109cc576040517f08c379a00000000000000000000000000000000000000000000000000000000081526004016109c390612675565b60405180910390fd5b80600001548160010160009054906101000a900473ffffffffffffffffffffffffffffffffffffffff168260020160009054906101000a900473ffffffffffffffffffffffffffffffffffffffff16836003018460040185600501548660060154876007015488600801548960090160009054906101000a900460ff16868054610a5590612174565b80601f0160208091040260200160405190810160405280929190818152602001828054610a8190612174565b8015610ace5780601f10610aa357610100808354040283529160200191610ace565b820191906000526020600020905b815481529060010190602001808311610ab157829003601f168201915b50505050509650858054610ae190612174565b80601f0160208091040260200160405190810160405280929190818152602001828054610b0d90612174565b8015610b5a5780601f10610b2f57610100808354040283529160200191610b5a565b820191906000526020600020905b815481529060010190602001808311610b3d57829003601f168201915b505050505095509a509a509a509a509a509a509a509a509a509a50509193959799509193959799565b60026020528160005260406000208181548110610b9f57600080fd5b90600052602060002001600091509150505481565b60606000803373ffffffffffffffffffffffffffffffffffffffff1673ffffffffffffffffffffffffffffffffffffffff16815260200190815260200160002060010160019054906101000a900460ff16610c44576040517f08c379a0000000000000000000000000000000000000000000000000000000008152600401610c3b90612577565b60405180910390fd5b600260003373ffffffffffffffffffffffffffffffffffffffff1673ffffffffffffffffffffffffffffffffffffffff168152602001908152602001600020805480602002602001604051908101604052809291908181526020018280548015610ccd57602002820191906000526020600020905b815481526020019060010190808311610cb9575b5050505050905090565b6000602052806000526040600020600091509050806000018054610cfa90612174565b80601f0160208091040260200160405190810160405280929190818152602001828054610d2690612174565b8015610d735780601f10610d4857610100808354040283529160200191610d73565b820191906000526020600020905b815481529060010190602001808311610d5657829003601f168201915b5050505050908060010160009054906101000a900460ff16908060010160019054906101000a900460ff16905083565b60008060003373ffffffffffffffffffffffffffffffffffffffff1673ffffffffffffffffffffffffffffffffffffffff16815260200190815260200160002060010160019054906101000a900460ff16610e33576040517f08c379a0000000000000000000000000000000000000000000000000000000008152600401610e2a90612577565b60405180910390fd5b60016003811115610e4757610e466119c5565b5b6000803373ffffffffffffffffffffffffffffffffffffffff1673ffffffffffffffffffffffffffffffffffffffff16815260200190815260200160002060010160009054906101000a900460ff166003811115610ea857610ea76119c5565b5b14610ee8576040517f08c379a0000000000000000000000000000000000000000000000000000000008152600401610edf90612609565b60405180910390fd5b60026003811115610efc57610efb6119c5565b5b6000808973ffffffffffffffffffffffffffffffffffffffff1673ffffffffffffffffffffffffffffffffffffffff16815260200190815260200160002060010160009054906101000a900460ff166003811115610f5d57610f5c6119c5565b5b14610f9d576040517f08c379a0000000000000000000000000000000000000000000000000000000008152600401610f94906126e1565b60405180910390fd5b600060046000815480929190610fb290612730565b919050559050600042905060006201518085610fce9190612778565b82610fd991906127ba565b90506040518061018001604052808481526020018b73ffffffffffffffffffffffffffffffffffffffff1681526020013373ffffffffffffffffffffffffffffffffffffffff1681526020018a81526020018981526020018881526020018781526020018381526020018281526020016000600381111561105d5761105c6119c5565b5b8152602001600073ffffffffffffffffffffffffffffffffffffffff1681526020016000815250600160008581526020019081526020016000206000820151816000015560208201518160010160006101000a81548173ffffffffffffffffffffffffffffffffffffffff021916908373ffffffffffffffffffffffffffffffffffffffff16021790555060408201518160020160006101000a81548173ffffffffffffffffffffffffffffffffffffffff021916908373ffffffffffffffffffffffffffffffffffffffff16021790555060608201518160030190816111449190612429565b50608082015181600401908161115a9190612429565b5060a0820151816005015560c0820151816006015560e0820151816007015561010082015181600801556101208201518160090160006101000a81548160ff021916908360038111156111b0576111af6119c5565b5b02179055506101408201518160090160016101000a81548173ffffffffffffffffffffffffffffffffffffffff021916908373ffffffffffffffffffffffffffffffffffffffff16021790555061016082015181600a0155905050600260008b73ffffffffffffffffffffffffffffffffffffffff1673ffffffffffffffffffffffffffffffffffffffff168152602001908152602001600020839080600181540180825580915050600190039060005260206000200160009091909190915055600360003373ffffffffffffffffffffffffffffffffffffffff1673ffffffffffffffffffffffffffffffffffffffff1681526020019081526020016000208390806001815401808255809150506001900390600052602060002001600090919091909150558973ffffffffffffffffffffffffffffffffffffffff163373ffffffffffffffffffffffffffffffffffffffff16847f1edcbf9718b77af1f5d768ccbcd29153a70c0962e24432e5de461f22dbcd313760405160405180910390a48293505050509695505050505050565b6000803373ffffffffffffffffffffffffffffffffffffffff1673ffffffffffffffffffffffffffffffffffffffff16815260200190815260200160002060010160019054906101000a900460ff166113d0576040517f08c379a00000000000000000000000000000000000000000000000000000000081526004016113c790612577565b60405180910390fd5b6003808111156113e3576113e26119c5565b5b6000803373ffffffffffffffffffffffffffffffffffffffff1673ffffffffffffffffffffffffffffffffffffffff16815260200190815260200160002060010160009054906101000a900460ff166003811115611444576114436119c5565b5b14611484576040517f08c379a000000000000000000000000000000000000000000000000000000000815260040161147b90612860565b60405180910390fd5b6000600160008381526020019081526020016000209050818160000154146114e1576040517f08c379a00000000000000000000000000000000000000000000000000000000081526004016114d890612675565b60405180910390fd5b600060038111156114f5576114f46119c5565b5b8160090160009054906101000a900460ff166003811115611519576115186119c5565b5b14611559576040517f08c379a0000000000000000000000000000000000000000000000000000000008152600401611550906128cc565b60405180910390fd5b80600801544211156115a0576040517f08c379a000000000000000000000000000000000000000000000000000000000815260040161159790612938565b60405180910390fd5b60018160090160006101000a81548160ff021916908360038111156115c8576115c76119c5565b5b0217905550338160090160016101000a81548173ffffffffffffffffffffffffffffffffffffffff021916908373ffffffffffffffffffffffffffffffffffffffff1602179055504281600a018190555060008160060154111561166e5780600601600081548092919061163b90612958565b919050555060008160090160006101000a81548160ff02191690836003811115611668576116676119c5565b5b02179055505b3373ffffffffffffffffffffffffffffffffffffffff16827fb51362287f01bbd025614c5495cc623fbf8437b952e396f3d68cc2e23c67852f60405160405180910390a35050565b60045481565b6000803373ffffffffffffffffffffffffffffffffffffffff1673ffffffffffffffffffffffffffffffffffffffff16815260200190815260200160002060010160019054906101000a900460ff1661174a576040517f08c379a000000000000000000000000000000000000000000000000000000000815260040161174190612577565b60405180910390fd5b6000600160008381526020019081526020016000209050818160000154146117a7576040517f08c379a000000000000000000000000000000000000000000000000000000000815260040161179e90612675565b60405180910390fd5b3373ffffffffffffffffffffffffffffffffffffffff168160020160009054906101000a900473ffffffffffffffffffffffffffffffffffffffff1673ffffffffffffffffffffffffffffffffffffffff1614611839576040517f08c379a0000000000000000000000000000000000000000000000000000000008152600401611830906129f3565b60405180910390fd5b6000600381111561184d5761184c6119c5565b5b8160090160009054906101000a900460ff166003811115611871576118706119c5565b5b146118b1576040517f08c379a00000000000000000000000000000000000000000000000000000000081526004016118a890612a85565b60405180910390fd5b60038160090160006101000a81548160ff021916908360038111156118d9576118d86119c5565b5b02179055503373ffffffffffffffffffffffffffffffffffffffff16827fa5b9f75c83d167cfe2976066639f03c528c5b07de78c33f8f7b9daf282eeaf4f60405160405180910390a35050565b6000604051905090565b600080fd5b600080fd5b600073ffffffffffffffffffffffffffffffffffffffff82169050919050565b60006119658261193a565b9050919050565b6119758161195a565b811461198057600080fd5b50565b6000813590506119928161196c565b92915050565b6000602082840312156119ae576119ad611930565b5b60006119bc84828501611983565b91505092915050565b7f4e487b7100000000000000000000000000000000000000000000000000000000600052602160045260246000fd5b60048110611a0557611a046119c5565b5b50565b6000819050611a16826119f4565b919050565b6000611a2682611a08565b9050919050565b611a3681611a1b565b82525050565b6000602082019050611a516000830184611a2d565b92915050565b6000819050919050565b611a6a81611a57565b8114611a7557600080fd5b50565b600081359050611a8781611a61565b92915050565b600060208284031215611aa357611aa2611930565b5b6000611ab184828501611a78565b91505092915050565b611ac381611a57565b82525050565b611ad28161195a565b82525050565b600081519050919050565b600082825260208201905092915050565b60005b83811015611b12578082015181840152602081019050611af7565b60008484015250505050565b6000601f19601f8301169050919050565b6000611b3a82611ad8565b611b448185611ae3565b9350611b54818560208601611af4565b611b5d81611b1e565b840191505092915050565b60048110611b7957611b786119c5565b5b50565b6000819050611b8a82611b68565b919050565b6000611b9a82611b7c565b9050919050565b611baa81611b8f565b82525050565b600061018082019050611bc6600083018f611aba565b611bd3602083018e611ac9565b611be0604083018d611ac9565b8181036060830152611bf2818c611b2f565b90508181036080830152611c06818b611b2f565b9050611c1560a083018a611aba565b611c2260c0830189611aba565b611c2f60e0830188611aba565b611c3d610100830187611aba565b611c4b610120830186611ba1565b611c59610140830185611ac9565b611c67610160830184611aba565b9d9c50505050505050505050505050565b600080fd5b600080fd5b7f4e487b7100000000000000000000000000000000000000000000000000000000600052604160045260246000fd5b611cba82611b1e565b810181811067ffffffffffffffff82111715611cd957611cd8611c82565b5b80604052505050565b6000611cec611926565b9050611cf88282611cb1565b919050565b600067ffffffffffffffff821115611d1857611d17611c82565b5b611d2182611b1e565b9050602081019050919050565b82818337600083830152505050565b6000611d50611d4b84611cfd565b611ce2565b905082815260208101848484011115611d6c57611d6b611c7d565b5b611d77848285611d2e565b509392505050565b600082601f830112611d9457611d93611c78565b5b8135611da4848260208601611d3d565b91505092915050565b600060ff82169050919050565b611dc381611dad565b8114611dce57600080fd5b50565b600081359050611de081611dba565b92915050565b60008060408385031215611dfd57611dfc611930565b5b600083013567ffffffffffffffff811115611e1b57611e1a611935565b5b611e2785828601611d7f565b9250506020611e3885828601611dd1565b9150509250929050565b600081519050919050565b600082825260208201905092915050565b6000819050602082019050919050565b611e7781611a57565b82525050565b6000611e898383611e6e565b60208301905092915050565b6000602082019050919050565b6000611ead82611e42565b611eb78185611e4d565b9350611ec283611e5e565b8060005b83811015611ef3578151611eda8882611e7d565b9750611ee583611e95565b925050600181019050611ec6565b5085935050505092915050565b60006020820190508181036000830152611f1a8184611ea2565b905092915050565b60008060408385031215611f3957611f38611930565b5b6000611f4785828601611983565b9250506020611f5885828601611a78565b9150509250929050565b6000602082019050611f776000830184611aba565b92915050565b600061014082019050611f93600083018d611aba565b611fa0602083018c611ac9565b611fad604083018b611ac9565b8181036060830152611fbf818a611b2f565b90508181036080830152611fd38189611b2f565b9050611fe260a0830188611aba565b611fef60c0830187611aba565b611ffc60e0830186611aba565b61200a610100830185611aba565b612018610120830184611ba1565b9b9a5050505050505050505050565b60008115159050919050565b61203c81612027565b82525050565b6000606082019050818103600083015261205c8186611b2f565b905061206b6020830185611a2d565b6120786040830184612033565b949350505050565b60008060008060008060c0878903121561209d5761209c611930565b5b60006120ab89828a01611983565b965050602087013567ffffffffffffffff8111156120cc576120cb611935565b5b6120d889828a01611d7f565b955050604087013567ffffffffffffffff8111156120f9576120f8611935565b5b61210589828a01611d7f565b945050606061211689828a01611a78565b935050608061212789828a01611a78565b92505060a061213889828a01611a78565b9150509295509295509295565b7f4e487b7100000000000000000000000000000000000000000000000000000000600052602260045260246000fd5b6000600282049050600182168061218c57607f821691505b60208210810361219f5761219e612145565b5b50919050565b7f5573657220616c72656164792072656769737465726564000000000000000000600082015250565b60006121db601783611ae3565b91506121e6826121a5565b602082019050919050565b6000602082019050818103600083015261220a816121ce565b9050919050565b7f496e76616c696420726f6c650000000000000000000000000000000000000000600082015250565b6000612247600c83611ae3565b915061225282612211565b602082019050919050565b600060208201905081810360008301526122768161223a565b9050919050565b60008190508160005260206000209050919050565b60006020601f8301049050919050565b600082821b905092915050565b6000600883026122df7fffffffffffffffffffffffffffffffffffffffffffffffffffffffffffffffff826122a2565b6122e986836122a2565b95508019841693508086168417925050509392505050565b6000819050919050565b600061232661232161231c84611a57565b612301565b611a57565b9050919050565b6000819050919050565b6123408361230b565b61235461234c8261232d565b8484546122af565b825550505050565b600090565b61236961235c565b612374818484612337565b505050565b5b818110156123985761238d600082612361565b60018101905061237a565b5050565b601f8211156123dd576123ae8161227d565b6123b784612292565b810160208510156123c6578190505b6123da6123d285612292565b830182612379565b50505b505050565b600082821c905092915050565b6000612400600019846008026123e2565b1980831691505092915050565b600061241983836123ef565b9150826002028217905092915050565b61243282611ad8565b67ffffffffffffffff81111561244b5761244a611c82565b5b6124558254612174565b61246082828561239c565b600060209050601f8311600181146124935760008415612481578287015190505b61248b858261240d565b8655506124f3565b601f1984166124a18661227d565b60005b828110156124c9578489015182556001820191506020850194506020810190506124a4565b868310156124e657848901516124e2601f8916826123ef565b8355505b6001600288020188555050505b505050505050565b600060408201905081810360008301526125158185611b2f565b90506125246020830184611a2d565b9392505050565b7f55736572206973206e6f74207265676973746572656400000000000000000000600082015250565b6000612561601683611ae3565b915061256c8261252b565b602082019050919050565b6000602082019050818103600083015261259081612554565b9050919050565b7f4f6e6c7920646f63746f72732063616e20706572666f726d207468697320616360008201527f74696f6e00000000000000000000000000000000000000000000000000000000602082015250565b60006125f3602483611ae3565b91506125fe82612597565b604082019050919050565b60006020820190508181036000830152612622816125e6565b9050919050565b7f507265736372697074696f6e20646f6573206e6f742065786973740000000000600082015250565b600061265f601b83611ae3565b915061266a82612629565b602082019050919050565b6000602082019050818103600083015261268e81612652565b9050919050565b7f496e76616c69642070617469656e742061646472657373000000000000000000600082015250565b60006126cb601783611ae3565b91506126d682612695565b602082019050919050565b600060208201905081810360008301526126fa816126be565b9050919050565b7f4e487b7100000000000000000000000000000000000000000000000000000000600052601160045260246000fd5b600061273b82611a57565b91507fffffffffffffffffffffffffffffffffffffffffffffffffffffffffffffffff820361276d5761276c612701565b5b600182019050919050565b600061278382611a57565b915061278e83611a57565b925082820261279c81611a57565b915082820484148315176127b3576127b2612701565b5b5092915050565b60006127c582611a57565b91506127d083611a57565b92508282019050808211156127e8576127e7612701565b5b92915050565b7f4f6e6c7920706861726d6163697374732063616e20706572666f726d2074686960008201527f7320616374696f6e000000000000000000000000000000000000000000000000602082015250565b600061284a602883611ae3565b9150612855826127ee565b604082019050919050565b600060208201905081810360008301526128798161283d565b9050919050565b7f507265736372697074696f6e2063616e6e6f742062652066696c6c6564000000600082015250565b60006128b6601d83611ae3565b91506128c182612880565b602082019050919050565b600060208201905081810360008301526128e5816128a9565b9050919050565b7f507265736372697074696f6e2068617320657870697265640000000000000000600082015250565b6000612922601883611ae3565b915061292d826128ec565b602082019050919050565b6000602082019050818103600083015261295181612915565b9050919050565b600061296382611a57565b91506000820361297657612975612701565b5b600182039050919050565b7f4f6e6c79207468652069737375696e6720646f63746f722063616e207265766f60008201527f6b65000000000000000000000000000000000000000000000000000000000000602082015250565b60006129dd602283611ae3565b91506129e882612981565b604082019050919050565b60006020820190508181036000830152612a0c816129d0565b9050919050565b7f43616e6e6f74207265766f6b652066696c6c6564206f7220657870697265642060008201527f707265736372697074696f6e0000000000000000000000000000000000000000602082015250565b6000612a6f602c83611ae3565b9150612a7a82612a13565b604082019050919050565b60006020820190508181036000830152612a9e81612a62565b905091905056fea264697066735822122034a5e42372131935c3046b672d4e3c89996e926116e336746193018eda53c30264736f6c63430008110033",
  "immutableReferences": {},
  "source": "// SPDX-License-Identifier: MIT\r\npragma solidity ^0.8.0;\r\n\r\ncontract PrescriptionSystem {\r\n    // Define roles\r\n    enum Role { None, Doctor, Patient, Pharmacist }\r\n    \r\n    // Define prescription status\r\n    enum Status { Created, Filled, Expired, Revoked }\r\n    \r\n    // Prescription structure\r\n    struct Prescription {\r\n        uint256 id;\r\n        address patientId;\r\n        address doctorId;\r\n        string medication;\r\n        string dosage;\r\n        uint256 quantity;\r\n        uint256 refills;\r\n        uint256 issueDate;\r\n        uint256 expiryDate;\r\n        Status status;\r\n        address filledBy;\r\n        uint256 filledDate;\r\n    }\r\n    \r\n    // User structure\r\n    struct User {\r\n        string name;\r\n        Role role;\r\n        bool isRegistered;\r\n    }\r\n    \r\n    // Mappings\r\n    mapping(address => User) public users;\r\n    mapping(uint256 => Prescription) public prescriptions;\r\n    mapping(address => uint256[]) public patientPrescriptions;\r\n    mapping(address => uint256[]) public doctorPrescriptions;\r\n    \r\n    uint256 public prescriptionCount = 0;\r\n    \r\n    // Events\r\n    event UserRegistered(address indexed userAddress, string name, Role role);\r\n    event PrescriptionIssued(uint256 indexed prescriptionId, address indexed doctorId, address indexed patientId);\r\n    event PrescriptionFilled(uint256 indexed prescriptionId, address indexed pharmacistId);\r\n    event PrescriptionRevoked(uint256 indexed prescriptionId, address indexed doctorId);\r\n    \r\n    // Modifiers\r\n    modifier onlyDoctor() {\r\n        require(users[msg.sender].role == Role.Doctor, \"Only doctors can perform this action\");\r\n        _;\r\n    }\r\n    \r\n    modifier onlyPharmacist() {\r\n        require(users[msg.sender].role == Role.Pharmacist, \"Only pharmacists can perform this action\");\r\n        _;\r\n    }\r\n    \r\n    modifier onlyRegistered() {\r\n        require(users[msg.sender].isRegistered, \"User is not registered\");\r\n        _;\r\n    }\r\n    \r\n    // Register a new user\r\n    function registerUser(string memory _name, uint8 _role) public {\r\n        require(!users[msg.sender].isRegistered, \"User already registered\");\r\n        require(_role > 0 && _role <= 3, \"Invalid role\");\r\n        \r\n        users[msg.sender] = User({\r\n            name: _name,\r\n            role: Role(_role),\r\n            isRegistered: true\r\n        });\r\n        \r\n        emit UserRegistered(msg.sender, _name, Role(_role));\r\n    }\r\n    \r\n    // Issue a new prescription (only doctors)\r\n    function issuePrescription(\r\n        address _patientId,\r\n        string memory _medication,\r\n        string memory _dosage,\r\n        uint256 _quantity,\r\n        uint256 _refills,\r\n        uint256 _expiryDays\r\n    ) public onlyRegistered onlyDoctor returns (uint256) {\r\n        require(users[_patientId].role == Role.Patient, \"Invalid patient address\");\r\n        \r\n        uint256 prescriptionId = prescriptionCount++;\r\n        uint256 issueDate = block.timestamp;\r\n        uint256 expiryDate = issueDate + (_expiryDays * 1 days);\r\n        \r\n        prescriptions[prescriptionId] = Prescription({\r\n            id: prescriptionId,\r\n            patientId: _patientId,\r\n            doctorId: msg.sender,\r\n            medication: _medication,\r\n            dosage: _dosage,\r\n            quantity: _quantity,\r\n            refills: _refills,\r\n            issueDate: issueDate,\r\n            expiryDate: expiryDate,\r\n            status: Status.Created,\r\n            filledBy: address(0),\r\n            filledDate: 0\r\n        });\r\n        \r\n        patientPrescriptions[_patientId].push(prescriptionId);\r\n        doctorPrescriptions[msg.sender].push(prescriptionId);\r\n        \r\n        emit PrescriptionIssued(prescriptionId, msg.sender, _patientId);\r\n        \r\n        return prescriptionId;\r\n    }\r\n    \r\n    // Fill a prescription (only pharmacists)\r\n    function fillPrescription(uint256 _prescriptionId) public onlyRegistered onlyPharmacist {\r\n        Prescription storage prescription = prescriptions[_prescriptionId];\r\n        \r\n        require(prescription.id == _prescriptionId, \"Prescription does not exist\");\r\n        require(prescription.status == Status.Created, \"Prescription cannot be filled\");\r\n        require(block.timestamp <= prescription.expiryDate, \"Prescription has expired\");\r\n        \r\n        prescription.status = Status.Filled;\r\n        prescription.filledBy = msg.sender;\r\n        prescription.filledDate = block.timestamp;\r\n        \r\n        if (prescription.refills > 0) {\r\n            prescription.refills--;\r\n            prescription.status = Status.Created;\r\n        }\r\n        \r\n        emit PrescriptionFilled(_prescriptionId, msg.sender);\r\n    }\r\n    \r\n    // Revoke a prescription (only the issuing doctor)\r\n    function revokePrescription(uint256 _prescriptionId) public onlyRegistered {\r\n        Prescription storage prescription = prescriptions[_prescriptionId];\r\n        \r\n        require(prescription.id == _prescriptionId, \"Prescription does not exist\");\r\n        require(prescription.doctorId == msg.sender, \"Only the issuing doctor can revoke\");\r\n        require(prescription.status == Status.Created, \"Cannot revoke filled or expired prescription\");\r\n        \r\n        prescription.status = Status.Revoked;\r\n        \r\n        emit PrescriptionRevoked(_prescriptionId, msg.sender);\r\n    }\r\n    \r\n    // Get a prescription by ID\r\n    function getPrescription(uint256 _prescriptionId) public view returns (\r\n        uint256 id,\r\n        address patientId,\r\n        address doctorId,\r\n        string memory medication,\r\n        string memory dosage,\r\n        uint256 quantity,\r\n        uint256 refills,\r\n        uint256 issueDate,\r\n        uint256 expiryDate,\r\n        Status status\r\n    ) {\r\n        Prescription storage prescription = prescriptions[_prescriptionId];\r\n        require(prescription.id == _prescriptionId, \"Prescription does not exist\");\r\n        \r\n        return (\r\n            prescription.id,\r\n            prescription.patientId,\r\n            prescription.doctorId,\r\n            prescription.medication,\r\n            prescription.dosage,\r\n            prescription.quantity,\r\n            prescription.refills,\r\n            prescription.issueDate,\r\n            prescription.expiryDate,\r\n            prescription.status\r\n        );\r\n    }\r\n    \r\n    // Get all prescriptions for a patient\r\n    function getPatientPrescriptions() public view onlyRegistered returns (uint256[] memory) {\r\n        return patientPrescriptions[msg.sender];\r\n    }\r\n    \r\n    // Get all prescriptions issued by a doctor\r\n    function getDoctorPrescriptions() public view onlyRegistered onlyDoctor returns (uint256[] memory) {\r\n        return doctorPrescriptions[msg.sender];\r\n    }\r\n    \r\n    // Verify if a user is registered and get role\r\n    function getUserRole(address _userAddress) public view returns (Role) {\r\n        return users[_userAddress].role;\r\n    }\r\n}",
  "sourcePath": "C:\\Users\\Chaitanya\\Desktop\\VS_Code\\6th_Sem\\BC\\VS_3.2\\prescription-blockchain-system\\contracts\\PrescriptionSystem.sol",
  "compiler": {
    "name": "solc",
    "version": "0.8.17+commit.8df45f5f.Emscripten.clang"
  },
  "schemaVersion": "3.4.16",
  "updatedAt": "2025-04-25T12:58:36.294Z",
  "networkType": "ethereum",
  "devdoc": {
    "kind": "dev",
    "methods": {},
    "version": 1
  },
  "userdoc": {
    "kind": "user",
    "methods": {},
    "version": 1
  }
}